:020000040800F2
:1000000000500020090500083D03000849030008CE
:100010004F030008550300085B03000800000000C0
:100020000000000000000000000000006103000864
:100030006D03000800000000790300088503000834
:100040005105000851050008510500085105000838
:100050005105000851050008510500085105000828
:100060005105000851050008510500085105000818
:100070005105000851050008510500085105000808
:1000800051050008510500085105000851050008F8
:1000900051050008510500085105000851050008E8
:1000A00051050008510500085105000851050008D8
:1000B00051050008510500085105000851050008C8
:1000C00051050008510500085105000851050008B8
:1000D000510500089103000851050008510500086A
:1000E00051050008510500085105000800000000F6
:1000F0000000000000000000000000000000000000
:0C01000000000000000000005FF808F1A3
:10010C0010B5054C237833B9044B13B10448AFF345
:10011C0000800123237010BD0C00002000000000A3
:10012C001825000808B5034B1BB103490348AFF36E
:10013C00008008BD000000001000002018250008F9
:10014C0080B588B000AF07F1100300221A605A6026
:10015C009A60DA60284B9B69274A43F0200393612D
:10016C00254B9B6903F02003FB60FB68224B9B69CA
:10017C00214A43F0040393611F4B9B6903F0040372
:10018C00BB60BB681C4B9B691B4A43F00803936123
:10019C00194B9B6903F008037B607B6800224FF4CA
:1001AC000041164800F00CFE00224FF47E711448FA
:1001BC0000F006FE4FF400433B6101237B610023FA
:1001CC00BB610223FB6107F1100319460B4800F0D9
:1001DC00BDFB4FF47E733B6101237B610023BB614C
:1001EC000223FB6107F110031946054800F0AEFB32
:1001FC0000BF2037BD4680BD001002400008014002
:10020C00000C014080B500AF00F09EF900F009F839
:10021C00FFF796FF00F0F4F802F0CEF802F0DEF8EB
:10022C00FEE780B590B000AF07F11803282200213B
:10023C00184602F063F93B1D00221A605A609A605E
:10024C00DA601A610123BB614FF48033FB61002338
:10025C003B620123BB6202237B634FF48033BB639D
:10026C004FF4E013FB6307F11803184600F0DAFDB6
:10027C000346002B01D000F019F80F237B600223FA
:10028C00BB600023FB604FF480633B6100237B6108
:10029C003B1D0221184601F035F90346002B01D015
:1002AC0000F004F800BF4037BD4680BD80B400AFFD
:1002BC0000BFBD4680BC704780B483B000AF78608F
:1002CC00396000BF0C37BD4680BC704780B485B028
:1002DC0000AF154B9B69144A43F001039361124B19
:1002EC009B6903F00103BB60BB680F4BDB690E4AD3
:1002FC0043F08053D3610C4BDB6903F080537B607C
:10030C007B680A4B5B68FB60FB6823F0E063FB6077
:10031C00FB6843F08063FB60044AFB68536000BFDA
:10032C001437BD4680BC70470010024000000140ED
:10033C0080B400AF00BFBD4680BC704780B400AF36
:10034C00FEE780B400AFFEE780B400AFFEE780B4F8
:10035C0000AFFEE780B400AF00BFBD4680BC704765
:10036C0080B400AF00BFBD4680BC704780B400AF06
:10037C0000BFBD4680BC704780B500AF02F08CF862
:10038C0000BF80BD80B500AF024801F0E9FB00BFA3
:10039C0080BD00BF2C00002080B400AF154B1B6843
:1003AC00144A43F001031360124B5A681149124B63
:1003BC0013404B600F4B1B680E4A23F0847323F4DD
:1003CC00803313600B4B1B680A4A23F480231360A1
:1003DC00084B5B68074A23F4FE035360054B4FF44C
:1003EC001F029A60054B4FF000629A6000BFBD4639
:1003FC0080BC7047001002400000FFF800ED00E0E8
:10040C0080B500AF114B124A1A60104B4FF4E13219
:10041C005A600E4B00229A600C4B0022DA600B4B98
:10042C0000221A61094B08225A61084B00229A617A
:10043C00064B0022DA61054801F0A6FA0346002BB0
:10044C0001D0FFF733FF00BF80BD00BF2C000020A0
:10045C000038014080B588B000AF786007F1100318
:10046C0000221A605A609A60DA607B681B68204A26
:10047C00934239D11F4B9B691E4A43F480439361CD
:10048C001C4B9B6903F48043FB60FB68194B9B6915
:10049C00184A43F004039361164B9B6903F0040361
:1004AC00BB60BB684FF400733B6102237B61032389
:1004BC00FB6107F1100319460F4800F047FA4FF49F
:1004CC0080633B6100237B610023BB6107F1100358
:1004DC001946094800F03AFA00220021252000F0C4
:1004EC006FF9252000F098F900BF2037BD4680BD7C
:1004FC00003801400010024000080140002103E0D8
:10050C000B4B5B58435004310A480B4B42189A4230
:10051C00F6D30A4A02E0002342F8043B084B9A4205
:10052C00F9D3FFF739FF01F0C5FFFFF76BFE7047FA
:10053C0080260008000000200C0000200C00002089
:10054C0074000020FEE7000080B500AF084B1B686C
:10055C00074A43F010031360032000F011F9002048
:10056C0000F008F8FFF7B2FE0023184680BD00BF6C
:10057C000020024080B582B000AF7860124B1A6840
:10058C00124B1B7819464FF47A73B3FBF1F3B2FBA1
:10059C00F3F3184600F058F90346002B01D0012361
:1005AC000EE07B680F2B0AD8002279684FF0FF30E1
:1005BC0000F006F9064A7B681360002300E0012373
:1005CC0018460837BD4680BD0000002008000020FA
:1005DC000400002080B400AF024B1B681846BD46D7
:1005EC0080BC70476C00002080B485B000AF786090
:1005FC007B6803F00703FB600C4BDB68BB60BA68DD
:10060C004FF6FF031340BB60FB681A02BB68134331
:10061C0043F0BF6343F40033BB60044ABB68D36050
:10062C0000BF1437BD4680BC704700BF00ED00E032
:10063C0080B400AF044BDB681B0A03F007031846B9
:10064C00BD4680BC704700BF00ED00E080B483B0B5
:10065C0000AF0346FB7197F90730002B0BDBFB79DE
:10066C0003F01F02064997F907305B09012000FAD5
:10067C0002F241F8232000BF0C37BD4680BC704706
:10068C0000E100E080B483B000AF03463960FB7139
:10069C0097F90730002B0ADB3B68DAB20C4997F963
:1006AC0007301201D2B20B4483F800230AE03B68F6
:1006BC00DAB20849FB7903F00F03043B1201D2B202
:1006CC000B441A7600BF0C37BD4680BC704700BF88
:1006DC0000E100E000ED00E080B489B000AFF8600C
:1006EC00B9607A60FB6803F00703FB61FB69C3F137
:1006FC000703042B28BF0423BB61FB690433062BBF
:10070C0002D9FB69033B00E000237B614FF0FF3211
:10071C00BB6902FA03F3DA43BB681A407B699A405F
:10072C004FF0FF317B6901FA03F3D9437B680B402F
:10073C00134318462437BD4680BC704780B582B041
:10074C0000AF78607B68013BB3F1807F01D301235C
:10075C000FE00A4A7B68013B53600F214FF0FF30DA
:10076C00FFF790FF054B00229A60044B07221A609A
:10077C00002318460837BD4680BD00BF10E000E0DE
:10078C0080B582B000AF78607B68072B0FD07B6898
:10079C00062B0CD07B68052B09D07B68042B06D06C
:1007AC007B68032B03D092210448FFF785FD786802
:1007BC00FFF71AFF00BF0837BD4680BD3025000883
:1007CC0080B586B000AF0346B9607A60FB73002336
:1007DC007B617B680F2B03D9AA210E48FFF76CFDB8
:1007EC00BB680F2B03D9AB210A48FFF765FDFFF758
:1007FC001FFF78617A68B9687869FFF76DFF024668
:10080C0097F90F3011461846FFF73CFF00BF183719
:10081C00BD4680BD3025000880B582B000AF0346D0
:10082C00FB7197F90730002B03DABE210548FFF75F
:10083C0043FD97F907301846FFF708FF00BF08374C
:10084C00BD4680BD3025000880B582B000AF786011
:10085C007868FFF773FF034618460837BD4680BD1E
:10086C0080B584B000AF78600023FB737B6893F88D
:10087C002130022B05D07B6804229A630123FB7381
:10088C0051E07B681B681A687B681B6822F00E02BB
:10089C001A607B681B681A687B681B6822F001026F
:1008AC001A607B681B68224A934229D07B681B68BC
:1008BC00204A934222D07B681B681F4A93421AD06D
:1008CC007B681B681D4A934212D07B681B681C4ACC
:1008DC0093420AD07B681B681A4A934202D14FF4A8
:1008EC0080130EE04FF080730BE04FF4803308E080
:1008FC004FF4805305E04FF4807302E0102300E0C6
:10090C000123114A53607B68012283F821207B6804
:10091C00002283F820207B685B6B002B03D07B6864
:10092C005B6B78689847FB7B18461037BD4680BDDB
:10093C00080002401C00024030000240440002400B
:10094C00580002406C0002400000024080B58AB0A2
:10095C0000AF7860396000237B6200233B627B68C8
:10096C009C4A934213D07B689B4A93420FD07B687E
:10097C009A4A93420BD07B68994A934207D07B6882
:10098C00984A934203D0BD219748FFF795FC3B68EA
:10099C001B689BB2002B05D03B681B681B0C1B040F
:1009AC00002B03D0BE219048FFF786FC3B685B68A8
:1009BC00002B00F0EB813B685B68012B00F0E681BB
:1009CC003B685B68112B00F0E1813B685B68022B94
:1009DC0000F0DC813B685B68122B00F0D7813B6830
:1009EC005B68824A934200F0D1813B685B68804A25
:1009FC00934200F0CB813B685B687E4A934200F0E7
:100A0C00C5813B685B687C4A934200F0BF813B68C0
:100A1C005B687A4A934200F0B9813B685B68784A1C
:100A2C00934200F0B3813B685B68032B00F0AE810E
:100A3C00BF216D48FFF740FCA8E101227B6A02FA56
:100A4C0003F3FB613B681B68FA691340BB61BA692D
:100A5C00FB699A4240F097817B685E4A934213D0BF
:100A6C007B685D4A93420FD07B685C4A93420BD003
:100A7C007B685B4A934207D07B685A4A934203D007
:100A8C00CD215948FFF718FC3B685B68122B65D0E9
:100A9C00122B0ED8022B4CD0022B04D8002B72D068
:100AAC00012B1DD0B1E0032B00F0AC80112B2BD00F
:100ABC00ABE04F4A934266D04D4A934206D84B4A1C
:100ACC00934260D04C4A93425DD09EE0494A934297
:100ADC0059D04B4A934256D0484A934253D094E053
:100AEC003B68DB68022B0BD03B68DB68012B07D023
:100AFC003B68DB68032B03D0D5213B48FFF7DCFBBD
:100B0C003B68DB683B6280E03B68DB68022B0BD008
:100B1C003B68DB68012B07D03B68DB68032B03D0F9
:100B2C00DC213148FFF7C8FB3B68DB6804333B62D0
:100B3C006BE03B68DB68022B0BD03B68DB68012B5E
:100B4C0007D03B68DB68032B03D0E3212648FFF773
:100B5C00B3FB3B68DB6808333B6256E03B68DB6801
:100B6C00022B0BD03B68DB68012B07D03B68DB68A2
:100B7C00032B03D0EA211C48FFF79EFB3B68DB6884
:100B8C000C333B6241E03B689B68002B0BD03B680D
:100B9C009B68012B07D03B689B68022B03D0F72185
:100BAC001148FFF789FB3B689B68002B02D104239B
:100BBC003B622AE03B689B68012B05D108233B6212
:100BCC007B68FA691A6120E008233B627B68FA694A
:100BDC005A611AE000080140000C0140001001406D
:100BEC0000140140001801406C2500080000111091
:100BFC000000211000003110000012100000221023
:100C0C000000321000233B6200BFBB69FF2B01D8F0
:100C1C007B6801E07B6804337B61BB69FF2B02D8E6
:100C2C007B6A9B0002E07B6A083B9B003B617B6913
:100C3C001A680F213B6901FA03F3DB431A40396A46
:100C4C003B6901FA03F31A437B691A603B685B68E2
:100C5C0003F08053002B00F09680524B9B69514A55
:100C6C0043F0010393614F4B9B6903F00103BB609D
:100C7C00BB684D4A7B6A9B08023352F82330FB60F9
:100C8C007B6A03F003039B000F2202FA03F3DB439E
:100C9C00FA681340FB607B68444A934213D07B682C
:100CAC00434A93420DD07B68424A934207D07B68FB
:100CBC00414A934201D1032306E0042304E00223BA
:100CCC0002E0012300E000237A6A02F003029200A2
:100CDC009340FA681343FB6033497B6A9B080233E9
:100CEC00FA6841F823203B685B6803F48033002BDF
:100CFC0006D0324B1A683149BB6913430B6006E0CE
:100D0C002E4B1A68BB69DB432C4913400B603B68C4
:100D1C005B6803F40033002B06D0284B5A68274934
:100D2C00BB6913434B6006E0244B5A68BB69DB4339
:100D3C00224913404B603B685B6803F48013002B23
:100D4C0006D01E4B9A681D49BB6913438B6006E0A5
:100D5C001A4B9A68BB69DB43184913408B603B689C
:100D6C005B6803F40013002B06D0144BDA681349AC
:100D7C00BB691343CB6006E0104BDA68BB69DB43FD
:100D8C000E491340CB607B6A01337B623B681A6867
:100D9C007B6A22FA03F3002B7FF44FAE00BF283797
:100DAC00BD4680BD0010024000000140000801401B
:100DBC00000C0140001001400014014000040140EF
:100DCC0080B582B000AF78600B467B8013467B7099
:100DDC007B88002B04D07B881B0C1B04002B04D0BD
:100DEC004FF4EA710E48FFF767FA7B78002B07D0B7
:100DFC007B78012B04D040F2D5110948FFF75CFA3F
:100E0C007B78002B03D07A887B681A6103E07B889F
:100E1C001A047B681A6100BF0837BD4680BD00BF4D
:100E2C006C25000880B586B000AF78607B68002B1D
:100E3C0001D101235CE37B681B68002B1CD07B6811
:100E4C001B6803F00103002B16D17B681B6803F0B1
:100E5C000203002B10D17B681B6803F00803002BE6
:100E6C000AD17B681B6803F00403002B04D140F209
:100E7C006711A548FFF720FA7B681B6803F0010394
:100E8C00002B00F09A807B685B68002B0ED07B688F
:100E9C005B68B3F5803F09D07B685B68B3F5A02F26
:100EAC0004D040F26D119848FFF706FA974B5B6837
:100EBC0003F00C03042B0CD0944B5B6803F00C0375
:100ECC00082B12D1914B5B6803F48033B3F5803F50
:100EDC000BD18E4B1B6803F40033002B6CD07B685A
:100EEC005B68002B68D1012302E37B685B68B3F578
:100EFC00803F06D1854B1B68844A43F480331360D2
:100F0C002EE07B685B68002B0CD1804B1B687F4A02
:100F1C0023F4803313607D4B1B687C4A23F48023BD
:100F2C0013601DE07B685B68B3F5A02F0CD1774B89
:100F3C001B68764A43F480231360744B1B68734A16
:100F4C0043F4803313600BE0704B1B686F4A23F43F
:100F5C00803313606D4B1B686C4A23F48023136041
:100F6C007B685B68002B13D0FFF734FB386108E01B
:100F7C00FFF730FB02463B69D31A642B01D90323DC
:100F8C00B6E2624B1B6803F40033002BF0D014E084
:100F9C00FFF720FB386108E0FFF71CFB02463B69BA
:100FAC00D31A642B01D90323A2E2584B1B6803F418
:100FBC000033002BF0D100E000BF7B681B6803F00E
:100FCC000203002B79D07B681B69002B08D07B684F
:100FDC001B69012B04D040F2A1114B48FFF76CF9AF
:100FEC007B685B691F2B04D94FF4D1714648FFF71E
:100FFC0063F9464B5B6803F00C03002B0BD0434B9F
:10100C005B6803F00C03082B1CD1404B5B6803F4AA
:10101C008033002B16D13D4B1B6803F00203002BD1
:10102C0005D07B681B69012B01D0012360E2374B93
:10103C001B6823F0F8027B685B69DB0033491343C0
:10104C000B603AE07B681B69002B20D0304B0122EF
:10105C001A60FFF7BFFA386108E0FFF7BBFA0246E7
:10106C003B69D31A022B01D9032341E2274B1B689E
:10107C0003F00203002BF0D0244B1B6823F0F80282
:10108C007B685B69DB00214913430B6015E0204B47
:10109C0000221A60FFF79EFA386108E0FFF79AFA0F
:1010AC0002463B69D31A022B01D9032320E2174BCA
:1010BC001B6803F00203002BF0D17B681B6803F064
:1010CC000803002B48D07B689B69002B08D07B68F9
:1010DC009B69012B04D04FF4F1710B48FFF7ECF82E
:1010EC007B689B69002B21D00A4B01221A60FFF709
:1010FC0071FA386110E0FFF76DFA02463B69D31ABA
:10110C00022B09D90323F3E1A825000800100240A3
:10111C000000424280044242674B5B6A03F00203C8
:10112C00002BE8D0012000F011FC15E0634B0022ED
:10113C001A60FFF74FFA386108E0FFF74BFA0246E6
:10114C003B69D31A022B01D90323D1E15A4B5B6AB9
:10115C0003F00203002BF0D17B681B6803F004033F
:10116C00002B00F0C0800023FB757B68DB68002B34
:10117C000CD07B68DB68012B08D07B68DB68052B07
:10118C0004D040F211214E48FFF796F84A4BDB6928
:10119C0003F08053002B0DD1474BDB69464A43F0DB
:1011AC008053D361444BDB6903F08053BB60BB6855
:1011BC000123FB75434B1B6803F48073002B18D180
:1011CC00404B1B683F4A43F480731360FFF702FAED
:1011DC00386108E0FFF7FEF902463B69D31A642B2D
:1011EC0001D9032384E1374B1B6803F48073002B74
:1011FC00F0D07B68DB68012B06D12F4B1B6A2E4A83
:10120C0043F0010313622DE07B68DB68002B0CD1EB
:10121C00294B1B6A284A23F001031362264B1B6AD5
:10122C00254A23F0040313621CE07B68DB68052B62
:10123C000CD1214B1B6A204A43F0040313621E4B52
:10124C001B6A1D4A43F0010313620BE01A4B1B6A25
:10125C00194A23F001031362174B1B6A164A23F039
:10126C00040313627B68DB68002B15D0FFF7B2F91F
:10127C0038610AE0FFF7AEF902463B69D31A41F236
:10128C008832934201D9032332E10B4B1B6A03F0E2
:10129C000203002BEED01DE0FFF79CF9386113E040
:1012AC00FFF798F902463B69D31A41F28832934210
:1012BC000AD903231CE100BF001002408004424203
:1012CC00A8250008007000408B4B1B6A03F002033A
:1012DC00002BE5D1FB7D012B05D1874BDB69864AC1
:1012EC0023F08053D3617B68DB69002B0CD07B68C7
:1012FC00DB69012B08D07B68DB69022B04D040F240
:10130C00AF217E48FEF7D8FF7B68DB69002B00F02D
:10131C00EE80794B5B6803F00C03082B00F0CE8059
:10132C007B68DB69022B40F0B2807B681B6A002B68
:10133C0009D07B681B6AB3F5803F04D04FF42E7143
:10134C006E48FEF7B9FF7B685B6A002B4AD07B685E
:10135C005B6AB3F5802F45D07B685B6AB3F5002FD1
:10136C0040D07B685B6AB3F5402F3BD07B685B6AEF
:10137C00B3F5801F36D07B685B6AB3F5A01F31D004
:10138C007B685B6AB3F5C01F2CD07B685B6AB3F5D6
:10139C00E01F27D07B685B6AB3F5001F22D07B6807
:1013AC005B6AB3F5101F1DD07B685B6AB3F5201F19
:1013BC0018D07B685B6AB3F5301F13D07B685B6A0F
:1013CC00B3F5401F0ED07B685B6AB3F5501F09D094
:1013DC007B685B6AB3F5601F04D040F2B9214748C3
:1013EC00FEF76AFF464B00221A60FFF7F3F83861EC
:1013FC0008E0FFF7EFF802463B69D31A022B01D93C
:10140C00032375E03C4B1B6803F00073002BF0D1F9
:10141C007B681B6AB3F5803F16D17B689B68002BF9
:10142C0009D07B689B68B3F5003F04D040F2CF2114
:10143C003248FEF741FF304B5B6823F400327B6887
:10144C009B682D4913434B602B4B5B6823F4741240
:10145C007B68196A7B685B6A0B43274913434B60B3
:10146C00274B01221A60FFF7B5F8386108E0FFF747
:10147C00B1F802463B69D31A022B01D9032337E09A
:10148C001D4B1B6803F00073002BF0D02FE01C4B9E
:10149C0000221A60FFF79EF8386108E0FFF79AF80F
:1014AC0002463B69D31A022B01D9032320E0124BCD
:1014BC001B6803F00073002BF0D118E07B68DB692C
:1014CC00012B01D1012313E00B4B5B68FB60FB6824
:1014DC0003F480327B681B6A9A4206D1FB6803F4E2
:1014EC0070127B685B6A9A4201D0012300E00023F2
:1014FC0018461837BD4680BD00100240A8250008CC
:10150C006000424280B584B000AF786039607B687F
:10151C00002B01D1012376E17B681B6803F00103EA
:10152C00002B16D17B681B6803F00203002B10D133
:10153C007B681B6803F00403002B0AD17B681B68D3
:10154C0003F00803002B04D14FF44E717448FEF7DE
:10155C00B3FE3B68002B0AD03B68012B07D03B68DD
:10156C00022B04D040F239316D48FEF7A5FE6D4BCD
:10157C001B6803F007033A689A4210D9694B1B6841
:10158C0023F0070267493B6813430B60654B1B68EC
:10159C0003F007033A689A4201D0012333E17B68D8
:1015AC001B6803F00203002B49D07B681B6803F017
:1015BC000403002B05D05C4B5B685B4A43F4E0638F
:1015CC0053607B681B6803F00803002B05D0564B57
:1015DC005B68554A43F4605353607B689B68002BEF
:1015EC0024D07B689B68802B20D07B689B68902BD9
:1015FC001CD07B689B68A02B18D07B689B68B02B99
:10160C0014D07B689B68C02B10D07B689B68D02B58
:10161C000CD07B689B68E02B08D07B689B68F02B18
:10162C0004D040F25F313E48FEF746FE3E4B5B680D
:10163C0023F0F0027B689B683B4913434B607B684B
:10164C001B6803F00103002B51D07B685B68002BF7
:10165C000CD07B685B68012B08D07B685B68022B25
:10166C0004D040F266312E48FEF726FE7B685B689C
:10167C00012B07D12C4B1B6803F40033002B15D125
:10168C000123C0E07B685B68022B07D1264B1B68EB
:10169C0003F00073002B09D10123B4E0224B1B682B
:1016AC0003F00203002B01D10123ACE01E4B5B685D
:1016BC0023F003027B685B681B4913434B60FEF706
:1016CC0089FFF8600AE0FEF785FF0246FB68D31A33
:1016DC0041F28832934201D9032394E0124B5B68A8
:1016EC0003F00C027B685B689B009A42EBD10D4BBC
:1016FC001B6803F007033A689A4217D2094B1B6820
:10170C0023F0070207493B6813430B60054B1B682A
:10171C0003F007033A689A4208D0012373E000BF34
:10172C00A825000800200240001002407B681B68BE
:10173C0003F00403002B25D07B68DB68002B18D04A
:10174C007B68DB68B3F5806F13D07B68DB68B3F51F
:10175C00A06F0ED07B68DB68B3F5C06F09D07B68D7
:10176C00DB68B3F5E06F04D04FF469712848FEF7DD
:10177C00A3FD284B5B6823F4E0627B68DB6825499A
:10178C0013434B607B681B6803F00803002B26D0C7
:10179C007B681B69002B18D07B681B69B3F5806FC5
:1017AC0013D07B681B69B3F5A06F0ED07B681B69E7
:1017BC00B3F5C06F09D07B681B69B3F5E06F04D03B
:1017CC0040F2AB311248FEF777FD124B5B6823F405
:1017DC0060527B681B69DB000E4913434B6000F0C1
:1017EC0021F801460B4B5B681B0903F00F030A4AF7
:1017FC00D35C21FA03F3094A1360094B1B681846A2
:10180C00FEF7B8FE002318461037BD4680BD00BF5A
:10181C00A825000800100240302600080000002017
:10182C000400002090B48AB000AF2A4B3C1D0FCBB3
:10183C0084E80F00284B1B883B800023FB610023AE
:10184C00BB6100237B6200237B6100233B62234B43
:10185C005B68FB61FB6903F00C03042B02D0082BC3
:10186C0003D02DE01E4B3B622DE0FB699B0C03F07B
:10187C000F0307F12802134413F8243C7B61FB6926
:10188C0003F48033002B13D0144B5B685B0C03F018
:10189C00010307F12802134413F8283CBB617B6950
:1018AC000F4A02FB03F2BB69B2FBF3F37B6204E069
:1018BC007B690C4A02FB03F37B627B6A3B6202E0AE
:1018CC00074B3B6200BF3B6A18462837BD4690BCAD
:1018DC00704700BFE0250008F0250008001002400A
:1018EC0000127A0000093D0080B400AF024B1B6867
:1018FC001846BD4680BC70470000002080B500AF84
:10190C00FFF7F2FF0146054B5B681B0A03F0070368
:10191C00034AD35C21FA03F3184680BD0010024041
:10192C004026000880B500AFFFF7DEFF0146054BEF
:10193C005B68DB0A03F00703034AD35C21FA03F369
:10194C00184680BD001002404026000880B485B0C7
:10195C0000AF78600A4B1B680A4AA2FB03235B0AA0
:10196C007A6802FB03F3FB6000BFFB685A1EFA6047
:10197C00002BF9D100BF1437BD4680BC704700BFA7
:10198C0000000020D34D621080B582B000AF7860AB
:10199C007B68002B01D1012392E07B689B69002BB3
:1019AC002CD07B681B68484A93420ED07B681B681E
:1019BC00464A934209D07B681B68454A934204D03F
:1019CC004FF4A3714348FEF777FC7B689B69002BAF
:1019DC0028D07B689B69B3F5807F23D07B689B699B
:1019EC00B3F5007F1ED07B689B69B3F5407F19D09F
:1019FC0040F247113748FEF75FFC13E07B681B6829
:101A0C00314A93420ED07B681B68304A934209D00E
:101A1C007B681B682E4A934204D040F24B112D4830
:101A2C00FEF74AFC7B689B68002B09D07B689B689F
:101A3C00B3F5805F04D040F24D112648FEF73CFC14
:101A4C007B6893F83930DBB2002B06D17B6800221F
:101A5C0083F838207868FEF7FDFC7B68242283F835
:101A6C0039207B681B68DA687B681B6822F400529B
:101A7C00DA60786800F0AAFA7B681B681A697B68E0
:101A8C001B6822F490421A617B681B685A697B6858
:101A9C001B6822F02A025A617B681B68DA687B6833
:101AAC001B6842F40052DA607B680022DA637B68C0
:101ABC00202283F839207B68202283F83A200023E7
:101ACC0018460837BD4680BD003801400044004030
:101ADC0000480040F425000880B485B000AFF860E1
:101AEC00B9601346FB80FB6893F83930DBB2202BCE
:101AFC0030D1BB68002B02D0FB88002B01D1012315
:101B0C0029E0FB6893F83830012B01D1022322E045
:101B1C00FB68012283F83820FB68BA681A62FB68FC
:101B2C00FA889A84FB68FA88DA84FB680022DA6304
:101B3C00FB68212283F83920FB68002283F83820C7
:101B4C00FB681B68DA68FB681B6842F08002DA608D
:101B5C00002300E0022318461437BD4680BC7047B2
:101B6C0080B588B000AF78607B681B681B68FB6130
:101B7C007B681B68DB68BB617B681B685B697B618E
:101B8C0000233B610023FB60FB6903F00F033B6107
:101B9C003B69002B0DD1FB6903F02003002B08D00F
:101BAC00BB6903F02003002B03D0786800F08DF99B
:101BBC00CCE03B69002B00F0AB807B6903F00103A8
:101BCC00002B05D1BB6903F49073002B00F0A080AF
:101BDC00FB6903F00103002B0AD0BB6903F480738B
:101BEC00002B05D07B68DB6B43F001027B68DA636A
:101BFC00FB6903F00403002B0AD07B6903F001039B
:101C0C00002B05D07B68DB6B43F002027B68DA6348
:101C1C00FB6903F00203002B0AD07B6903F001037C
:101C2C00002B05D07B68DB6B43F004027B68DA6326
:101C3C00FB6903F00803002B0AD07B6903F0010356
:101C4C00002B05D07B68DB6B43F008027B68DA6302
:101C5C007B68DB6B002B78D0FB6903F02003002B37
:101C6C0007D0BB6903F02003002B02D0786800F08A
:101C7C002CF97B681B685B6903F04003002B14BFD5
:101C8C0001230023DBB2FB607B68DB6B03F00803F2
:101C9C00002B02D1FB68002B31D0786800F077F86C
:101CAC007B681B685B6903F04003002B23D07B68C7
:101CBC001B685A697B681B6822F040025A617B687A
:101CCC005B6B002B13D07B685B6B224A5A637B687F
:101CDC005B6B1846FEF7C4FD0346002B16D07B68E1
:101CEC005B6B5B6B7A68526B104698470EE07868BA
:101CFC0000F044F80AE0786800F040F806E07868F4
:101D0C0000F03CF87B680022DA631EE000BF1CE0A8
:101D1C00FB6903F08003002B08D0BB6903F0800340
:101D2C00002B03D0786800F063F80FE0FB6903F038
:101D3C004003002B0AD0BB6903F04003002B05D0F5
:101D4C00786800F0AAF800BF00E000BF2037BD465D
:101D5C0080BD00BFD51D000880B483B000AF786093
:101D6C0000BF0C37BD4680BC704780B483B000AF59
:101D7C00786000BF0C37BD4680BC704780B483B020
:101D8C0000AF786000BF0C37BD4680BC704780B494
:101D9C0083B000AF78607B681B68DA687B681B686F
:101DAC0022F49072DA607B681B685A697B681B6846
:101DBC0022F001025A617B68202283F83A2000BF8E
:101DCC000C37BD4680BC704780B584B000AF7860DE
:101DDC007B685B6AFB60FB680022DA85FB6800228B
:101DEC00DA84F868FFF7CAFF00BF1037BD4680BD24
:101DFC0080B485B000AF78607B6893F83930DBB283
:101E0C00212B44D17B689B68B3F5805F1AD17B682A
:101E1C001B6AFB60FB681B881A467B681B68C2F355
:101E2C0008025A607B681B69002B05D17B681B6A12
:101E3C009A1C7B681A620EE07B681B6A5A1C7B68D2
:101E4C001A6208E07B681B6A591C7A6811621A785E
:101E5C007B681B685A607B68DB8C9BB2013B9BB236
:101E6C007A681946D184002B0FD17B681B68DA681D
:101E7C007B681B6822F08002DA607B681B68DA687A
:101E8C007B681B6842F04002DA60002300E002230A
:101E9C0018461437BD4680BC704780B582B000AF81
:101EAC0078607B681B68DA687B681B6822F04002EC
:101EBC00DA607B68202283F839207868FFF74CFFC2
:101ECC00002318460837BD4680BD80B584B000AFEE
:101EDC0078607B6893F83A30DBB2222B71D17B6847
:101EEC009B68B3F5805F23D17B689B6AFB607B6842
:101EFC001B69002B0ED17B681B685B689BB2C3F31C
:101F0C0008039AB2FB681A807B689B6A9A1C7B68F0
:101F1C009A6229E07B681B685B689BB2DBB29AB261
:101F2C00FB681A807B689B6A5A1C7B689A621BE070
:101F3C007B681B69002B0AD17B681B6858687B681F
:101F4C009B6A591C7A689162C2B21A700CE07B6869
:101F5C001B685B68DAB27B689B6A581C796888627C
:101F6C0002F07F02D2B21A707B68DB8D9BB2013B10
:101F7C009BB27A681946D185002B20D17B681B68EF
:101F8C00DA687B681B6822F02002DA607B681B68C9
:101F9C00DA687B681B6822F48072DA607B681B68E5
:101FAC005A697B681B6822F001025A617B68202207
:101FBC0083F83A207868FFF7D8FE002302E000236C
:101FCC0000E0022318461037BD4680BD80B584B0B2
:101FDC0000AF78607B685B68844A934204D940F612
:101FEC00FD318348FEF768F97B68DB68002B09D06C
:101FFC007B68DB68B3F5005F04D040F6FE317C48AB
:10200C00FEF75AF97B681B69002B0ED07B681B69A5
:10201C00B3F5806F09D07B681B69B3F5C06F04D032
:10202C0040F6FF317248FEF747F97B685A694FF664
:10203C00F3731340002B03D17B685B69002B04D135
:10204C004FF440616A48FEF737F97B681B681B69DF
:10205C0023F440517B68DA687B681B680A431A6179
:10206C007B689A687B681B691A437B685B691343BE
:10207C00FB607B681B68DB6823F4B05323F00C0314
:10208C007A681268F9680B43D3607B681B685B69DC
:10209C0023F440717B689A697B681B680A435A6118
:1020AC007B681B68534A93424ED1FFF73BFCB860E8
:1020BC00BA6813469B0013449A001A447B685B6809
:1020CC009B00B2FBF3F34C4AA2FB03235B091901FF
:1020DC00BA6813469B0013449A001A447B685B68E9
:1020EC009B00B2FBF3F2444BA3FB02035B0964209D
:1020FC0000FB03F3D31A1B0132333F4AA2FB032329
:10210C005B0903F0F0031944BA6813469B001344AF
:10211C009A001A447B685B689B00B2FBF3F2364B67
:10212C00A3FB02035B09642000FB03F3D31A1B011E
:10213C003233314AA2FB03235B0903F00F027B68A5
:10214C001B680A449A604DE0FFF7D8FBB860BA6888
:10215C0013469B0013449A001A447B685B689B00EF
:10216C00B2FBF3F3244AA2FB03235B091901BA68FF
:10217C0013469B0013449A001A447B685B689B00CF
:10218C00B2FBF3F21C4BA3FB02035B09642000FBC4
:10219C0003F3D31A1B013233174AA2FB03235B0947
:1021AC0003F0F0031944BA6813469B0013449A00D9
:1021BC001A447B685B689B00B2FBF3F20E4BA3FBEB
:1021CC0002035B09642000FB03F3D31A1B013233B7
:1021DC00094AA2FB03235B0903F00F027B681B680F
:1021EC000A449A6000BF1037BD4680BD20AA440047
:1021FC00F4250008003801401F85EB5180B500AF75
:10220C002F4B1B7803F00103DBB21A464FF400414D
:10221C002C48FEF7D5FD2A4B1B785B08DBB203F08C
:10222C000103DBB21A4608212748FEF7C9FD244BEF
:10223C001B789B08DBB203F00103DBB21A461021BA
:10224C002148FEF7BDFD1E4B1B78DB08DBB203F00B
:10225C000103DBB21A4620211B48FEF7B1FD184BD7
:10226C001B781B09DBB203F00103DBB21A464021D9
:10227C001548FEF7A5FD124B1B785B09DBB203F08A
:10228C000103DBB21A4680210F48FEF799FD0C4B77
:10229C001B789B09DBB203F00103DBB21A464FF447
:1022AC0080710948FEF78CFD054B1B78DB09DBB20E
:1022BC001A464FF400710448FEF782FD00BF80BD42
:1022CC007000002000080140000C014080B400AFF9
:1022DC000C4B5B780133DAB20A4B5A70094B5B78C2
:1022EC0003F00703DAB2074B5A70064B5B781A46B9
:1022FC0001239340DAB2034B1A7000BFBD4680BC79
:10230C00704700BF7000002080B500AFFFF776FF6C
:10231C0000BF80BD80B400AF00BFBD4680BC70471D
:10232C0080B400AF00BFBD4680BC704780B400AF26
:10233C0000BFBD4680BC704780B400AF00BFBD4637
:10234C0080BC704780B500AF0A2203490348FFF7F1
:10235C00C3FB00BF80BD00BF482600082C00002036
:10236C0080B500AFFFF7B2FF0A2203490348FFF71D
:10237C00B3FB00BF80BD00BF542600082C0000201A
:10238C0080B500AF0A2203490348FFF7A5FB00BF45
:10239C0080BD00BF602600082C00002080B500AF77
:1023AC000A2203490348FFF797FB00BF80BD00BF1B
:1023BC006C2600082C00002080B400AF064B0022D5
:1023CC001A70054B00225A70034B00229A7000BF02
:1023DC00BD4680BC704700BF2800002080B500AF10
:1023EC002C4B5A782B4B1B789A42F9D0294B1A78E4
:1023FC00284B5A70FFF788FF264B9B7803F001039C
:10240C00002B02D0FFF786FF3CE0224B9B7803F0B9
:10241C000203002B02D0FFF783FF33E01D4B9B78A8
:10242C0003F00403002B02D0FFF780FF2AE0194BC6
:10243C009B7803F00803002B02D0FFF77DFF21E00F
:10244C00144B9B7803F01003002B02D0FFF77AFF9C
:10245C0018E0104B9B7803F02003002B02D0FFF701
:10246C007FFF0FE00B4B9B7803F04003002B02D057
:10247C00FFF786FF06E0074B9B785BB2002B01DA77
:10248C00FFF78CFF034B9B780133DAB2014B9A7048
:10249C00A6E700BF2800002080B400AF044B1B78D7
:1024AC000133DAB2024B1A7000BFBD4680BC7047D4
:1024BC002800002070B500250C4E0D4CA41BA41058
:1024CC00A54209D100F022F800250A4E0A4CA41BA3
:1024DC00A410A54205D170BD56F82530984701359A
:1024EC00EEE756F8253098470135F2E778260008D4
:1024FC0078260008782600087C260008034602444B
:10250C00934200D1704703F8011BF9E7F8B500BFFF
:10251C00F8BC08BC9E467047F8B500BFF8BC08BCB8
:04252C009E46704710
:102530002E2E2F447269766572732F53544D3332A9
:10254000463178785F48414C5F4472697665722FF6
:102550005372632F73746D3332663178785F6861BC
:102560006C5F636F727465782E6300002E2E2F44AB
:102570007269766572732F53544D333246317878D1
:102580005F48414C5F4472697665722F5372632FC6
:1025900073746D3332663178785F68616C5F677031
:1025A000696F2E63000000002E2E2F44726976653D
:1025B00072732F53544D3332463178785F48414C13
:1025C0005F4472697665722F5372632F73746D3333
:1025D00032663178785F68616C5F7263632E630086
:1025E00002030405060708090A0B0C0D0E0F101054
:1025F000010200002E2E2F447269766572732F53EC
:10260000544D3332463178785F48414C5F447269AB
:102610007665722F5372632F73746D33326631781F
:10262000785F68616C5F756172742E6300000000F2
:102630000000000000000000010203040607080972
:10264000000000000102030420202020352020206B
:102650000A00000020202020203620200A00000050
:1026600020202020202037200A00000020202020C9
:08267000202020380A000000C0
:042678003101000824
:04267C000D01000844
:0C2680000024F400100000000100000025
:0400000508000509E1
:00000001FF
