:020000040800F2
:1000000000500020010700084506000851060008BE
:10001000570600085D06000863060008000000009F
:100020000000000000000000000000006906000859
:100030007506000800000000810600088D06000813
:100040004907000849070008490700084907000850
:100050004907000849070008490700084907000840
:100060004907000849070008490700084907000830
:100070004907000849070008490700084907000820
:100080004907000849070008490700084907000810
:100090004907000849070008490700084907000800
:1000A00049070008490700084907000849070008F0
:1000B00049070008490700084907000849070008E0
:1000C00049070008490700084907000849070008D0
:1000D00049070008490700084907000849070008C0
:1000E0004907000849070008490700080000000008
:1000F0000000000000000000000000000000000000
:0C01000000000000000000005FF808F1A3
:10010C0010B5054C237833B9044B13B10448AFF345
:10011C0000800123237010BD0400002000000000AB
:10012C00680B000808B5034B1BB103490348AFF338
:10013C00008008BD0000000008000020680B0008CB
:10014C0080B485B000AF7860084B9A6907497B682A
:10015C0013438B61054B9A697B681340FB60FB680A
:10016C0000BF1437BD4680BC704700BF0010024072
:10017C0080B483B000AF786039603B681B0A9AB2D8
:10018C007B685A6100BF0C37BD4680BC70470000CD
:10019C0080B586B000AF3B1D00221A605A609A6091
:1001AC00DA601A612020FFF7CBFF0420FFF7C8FFAD
:1001BC000820FFF7C5FF13491348FFF7D9FF134970
:1001CC001348FFF7D5FF0F4B7B600123BB60022365
:1001DC00FB6000233B613B1D19460B4800F068FB9C
:1001EC000A4B7B600123BB600223FB6000233B6155
:1001FC003B1D1946064800F05BFB00BF1837BD4697
:10020C0080BD00BF8000800400080140FBF803049F
:10021C00000C014080B485B000AF78607B6803F0BF
:10022C000703FB600C4BDB68BB60BA684FF6FF033F
:10023C001340BB60FB681A02BB68134343F0BF63F7
:10024C0043F40033BB60044ABB68D36000BF14376F
:10025C00BD4680BC704700BF00ED00E080B400AF2D
:10026C00044B1B68034A43F48033136000BFBD4644
:10027C0080BC70470010024080B400AF064B1B6876
:10028C0003F40033B3F5003F0CBF01230023DBB2B2
:10029C001846BD4680BC70470010024080B483B045
:1002AC0000AF7860064B5B6823F0030204497B685F
:1002BC0013434B6000BF0C37BD4680BC704700BF7A
:1002CC000010024080B400AF034B5B6803F00C03DA
:1002DC001846BD4680BC70470010024080B483B005
:1002EC0000AF7860064B5B6823F0F00204497B6832
:1002FC0013434B6000BF0C37BD4680BC704700BF3A
:10030C000010024080B483B000AF7860064B5B688D
:10031C0023F4E06204497B6813434B6000BF0C3745
:10032C00BD4680BC704700BF0010024080B483B053
:10033C0000AF7860064B5B6823F4605204497B681D
:10034C0013434B6000BF0C37BD4680BC704700BFE9
:10035C000010024080B400AF044B1B68034A43F00A
:10036C008073136000BFBD4680BC70470010024014
:10037C0080B400AF064B1B6803F00073B3F1007F31
:10038C000CBF01230023DBB21846BD4680BC70476E
:10039C000010024080B483B000AF78603960084B25
:1003AC005B6823F47C127B6803F440313B680B439D
:1003BC00034913434B6000BF0C37BD4680BC7047EC
:1003CC000010024080B485B000AF7860084BDA6949
:1003DC0007497B681343CB61054BDA697B68134093
:1003EC00FB60FB6800BF1437BD4680BC704700BF84
:1003FC000010024080B485B000AF7860084B9A6959
:10040C0007497B6813438B61054B9A697B681340E2
:10041C00FB60FB6800BF1437BD4680BC704700BF53
:10042C000010024080B483B000AF7860064B1B68AC
:10043C0023F0070204497B6813430B6000BF0C37A1
:10044C00BD4680BC704700BF0020024080B400AFA6
:10045C00034B1B6803F007031846BD4680BC70476E
:10046C000020024080B483B000AF78607B68042B1E
:10047C0006D1094B1B68084A43F00403136005E0DE
:10048C00054B1B68044A23F00403136000BF0C37B0
:10049C00BD4680BC704700BF10E000E080B483B064
:1004AC0000AF786039603B681B0A9AB27B681A61AE
:1004BC0000BF0C37BD4680BC704780B483B000AF22
:1004CC00786039603B681B0A9AB27B685A6100BF3E
:1004DC000C37BD4680BC704780B483B000AF7860E9
:1004EC0039607B68DA683B681B0A9BB25A407B68B0
:1004FC00DA6000BF0C37BD4680BC704780B400AFDB
:10050C00074B5B68064A23F0E0635360044B5B685F
:10051C00034A43F08063536000BFBD4680BC704704
:10052C000000014080B500AF0120FFF763FF4FF0E2
:10053C008050FFF747FF0320FFF76CFEFFF7DEFF4D
:10054C0000F028F8FFF724FE0C490D48FFF7B5FF23
:10055C000C490D48FFF7B1FF0C490B48FFF79EFF04
:10056C004FF4FA7000F0A4FA04490548FFF7B4FF01
:10057C0007490548FFF7B0FFF2E700BF8000800491
:10058C000008014051500104000C0140AAA80204CB
:10059C00FBF8030480B500AF0220FFF743FFFFF721
:1005AC0055FF0346022B01D000F036F8FFF756FE3C
:1005BC0000BFFFF761FE0346012BFAD14FF4E011A7
:1005CC004FF48030FFF7E6FEFFF7C4FE00BFFFF7E5
:1005DC00CFFE0346012BFAD10020FFF77FFE4FF42C
:1005EC008060FFF78FFE0020FFF7A0FE0220FFF7D0
:1005FC0055FE00BFFFF766FE0346082BFAD10548EF
:10060C0000F048FA0420FFF72DFF024800F074FABE
:10061C0000BF80BD00A24A0480B400AF00BFBD463D
:10062C0080BC704780B483B000AF7860396000BF85
:10063C000C37BD4680BC704780B400AF00BFBD46D0
:10064C0080BC704780B400AFFEE780B400AFFEE71B
:10065C0080B400AFFEE780B400AFFEE780B400AF1B
:10066C0000BFBD4680BC704780B400AF00BFBD4624
:10067C0080BC704780B400AF00BFBD4680BC7047E3
:10068C0080B400AF00BFBD4680BC704780B400AFE3
:10069C00154B1B68144A43F001031360124B5A6844
:1006AC001149124B13404B600F4B1B680E4A23F041
:1006BC00847323F4803313600B4B1B680A4A23F4B6
:1006CC0080231360084B5B68074A23F4FE035360D6
:1006DC00054B4FF41F029A60054B4FF000629A6075
:1006EC0000BFBD4680BC7047001002400000FFF800
:1006FC0000ED00E0002103E00B4B5B58435004314C
:10070C000A480B4B42189A42F6D30A4A02E00023DD
:10071C0042F8043B084B9A42F9D3FFF7B7FF00F0BD
:10072C00F9F9FFF7FFFE7047C00B0008000000202E
:10073C00040000200400002020000020FEE790B4FC
:10074C0088B000AFF860B9607A60FB681A46BB6885
:10075C001B0E13441C462268BB687B617B6993FAB1
:10076C00A3F33B613B69B3FA83F3DBB29B000F212C
:10077C0001FA03F3DB431A40BB68FB61FB6993FA94
:10078C00A3F3BB61BB69B3FA83F3DBB29B0079685B
:10079C0001FA03F31343236000BF2037BD4690BC1E
:1007AC00704790B488B000AFF860B9607A60FB68AD
:1007BC001A46BB681B0E13441C462268BB687B613F
:1007CC007B6993FAA3F33B613B69B3FA83F3DBB226
:1007DC009B00032101FA03F3DB431A40BB68FB6166
:1007EC00FB6993FAA3F3BB61BB69B3FA83F3DBB286
:1007FC009B00796801FA03F31343236000BF203791
:10080C00BD4690BC704790B488B000AFF860B9603A
:10081C007A60FB681A46BB681B0E13441C462268A0
:10082C00BB687B617B6993FAA3F33B613B69B3FAC9
:10083C0083F3DBB29B00042101FA03F3DB431A4080
:10084C00BB68FB61FB6993FAA3F3BB61BB69B3FAA9
:10085C0083F3DBB29B00796801FA03F31343236043
:10086C0000BF2037BD4690BC704780B487B000AF46
:10087C00F860B9607A60FB68DA68BB681B0ADB4316
:10088C001A40BB681B0A7B617B6993FAA3F33B613B
:10089C003B69B3FA83F3DBB219467B688B401A438E
:1008AC00FB68DA6000BF1C37BD4680BC7047000097
:1008BC0080B588B000AF786039607B68624A93423B
:1008CC0013D07B68614A93420FD07B68604A934295
:1008DC000BD07B685F4A934207D07B685E4A934299
:1008EC0003D0A3215D48FFF79DFE3B681B6823F0F6
:1008FC007B43002B05D03B681B6803F07B43002B2C
:10090C0003D0A4215548FFF78DFE3B681B681B02E2
:10091C001B0C7B617B693B613B6993FAA3F3FB6026
:10092C00FB68B3FA83F3DBB2FB6180E00122FB6965
:10093C009A407B691340002B76D0FB69072B06D8B5
:10094C0040F20112FB6902FA03F3BB6108E0FB6998
:10095C00083B4FF0011202FA03F343F08063BB61D2
:10096C003B685B68002B13D03B685B68042B0FD093
:10097C003B685B68082B0BD03B685B68012B07D08E
:10098C003B685B68092B03D0BD213448FFF74AFE56
:10099C003B681B69002B07D03B681B69012B03D0FC
:1009AC00BE212E48FFF73EFE3B685B681A46B969CC
:1009BC007868FFF7C4FE3B681B691A46B96978680A
:1009CC00FFF753FF3B685B68012B03D03B685B6808
:1009DC00092B29D13B689B68022B0BD03B689B6889
:1009EC00012B07D03B689B68032B03D0C9211B4804
:1009FC00FFF718FE3B68DB68002B07D03B68DB6811
:100A0C00042B03D0CA211548FFF70CFE3B689B68EA
:100A1C001A46B9697868FFF7C4FE3B68DB681A466A
:100A2C00B9697868FFF7EFFEFB690133FB617A69FE
:100A3C00FB6922FA03F3002B7FF478AF00231846EE
:100A4C002037BD4680BD00BF00080140000C0140AE
:100A5C00001001400014014000180140800B0008F8
:100A6C0080B483B000AF786039607A683B68B2FBC1
:100A7C00F3F3074A013B5360054B00229A60044B89
:100A8C0005221A6000BF0C37BD4680BC704700BF02
:100A9C0010E000E080B582B000AF78604FF47A715E
:100AAC007868FFF7DDFF00BF0837BD4680BD00004A
:100ABC0080B485B000AF78600E4B1B68FB60FB68A0
:100ACC007B68B3F1FF3F0CD07B6801337B6008E09F
:100ADC00084B1B6803F48033002B02D07B68013B6E
:100AEC007B607B68002BF3D100BF1437BD4680BC04
:100AFC00704700BF10E000E080B483B000AF7860B6
:100B0C00034A7B68136000BF0C37BD4680BC70473E
:100B1C000000002070B500250C4E0D4CA41BA41039
:100B2C00A54209D100F01AF800250A4E0A4CA41B64
:100B3C00A410A54205D170BD56F825309847013553
:100B4C00EEE756F8253098470135F2E7B80B000868
:100B5C00B80B0008B80B0008BC0B0008F8B500BFB8
:100B6C00F8BC08BC9E467047F8B500BFF8BC08BC82
:040B7C009E467047DA
:100B80002E2E2F447269766572732F53544D333273
:100B9000463178785F48414C5F4472697665722FC0
:100BA0005372632F73746D3332663178785F6C6C77
:080BB0005F6770696F2E63009E
:040BB80031010008FF
:040BBC000D0100081F
:040BC0000024F40019
:0400000508000701E7
:00000001FF
