:020000040800F2
:1000000000500020FD0800084503000851030008C7
:10001000570300085D0300086303000800000000A8
:10002000000000000000000000000000690300085C
:100030007503000800000000810300088D0300081C
:100040004509000845090008450900084509000858
:100050004509000845090008450900084509000848
:100060004509000845090008450900084509000838
:100070004509000845090008450900084509000828
:100080004509000845090008450900084509000818
:100090004509000845090008450900084509000808
:1000A00045090008450900084509000845090008F8
:1000B00045090008450900084509000845090008E8
:1000C00045090008450900084509000845090008D8
:1000D000450900089903000845090008450900087A
:1000E000450900084509000845090008000000000E
:1000F0000000000000000000000000000000000000
:0C01000000000000000000005FF808F1A3
:10010C0010B5054C237833B9044B13B10448AFF345
:10011C0000800123237010BD70000020000000003F
:10012C00604B000808B5034B1BB103490348AFF300
:10013C00008008BD0000000074000020604B000827
:10014C0080B588B000AF07F1100300221A605A6026
:10015C009A60DA60284B9B69274A43F0200393612D
:10016C00254B9B6903F02003FB60FB68224B9B69CA
:10017C00214A43F0040393611F4B9B6903F0040372
:10018C00BB60BB681C4B9B691B4A43F00803936123
:10019C00194B9B6903F008037B607B6800224FF4CA
:1001AC000041164801F006F800224FF47E71144805
:1001BC0001F000F84FF400433B6101237B61002305
:1001CC00BB610223FB6107F1100319460B4800F0D9
:1001DC00B7FD4FF47E733B6101237B610023BB6150
:1001EC000223FB6107F110031946054800F0A8FD36
:1001FC0000BF2037BD4680BD001002400008014002
:10020C00000C014080B500AF00F098FB00F00DF839
:10021C00FFF796FF00F08EF900F006FA00F0EAFA0C
:10022C0003F0FAFC03F00AFDFEE780B590B000AFD6
:10023C0007F1180328220021184603F095FD3B1DF9
:10024C0000221A605A609A60DA601A610123BB615D
:10025C004FF48033FB6100233B620123BB6202231A
:10026C007B634FF48033BB634FF4E013FB6307F104
:10027C001803184600F0D0FF0346002B01D000F005
:10028C0019F80F237B600223BB600023FB604FF443
:10029C0080633B6100237B613B1D0221184601F00A
:1002AC002BFB0346002B01D000F004F800BF4037B5
:1002BC00BD4680BD80B400AF00BFBD4680BC70475A
:1002CC0080B483B000AF7860396000BF0C37BD4696
:1002DC0080BC704780B485B000AF154B9B69144A45
:1002EC0043F001039361124B9B6903F00103BB6064
:1002FC00BB680F4BDB690E4A43F08053D3610C4B48
:10030C00DB6903F080537B607B680A4B5B68FB60A6
:10031C00FB6823F0E063FB60FB6843F08063FB60E9
:10032C00044AFB68536000BF1437BD4680BC70475D
:10033C00001002400000014080B400AF00BFBD4679
:10034C0080BC704780B400AFFEE780B400AFFEE71E
:10035C0080B400AFFEE780B400AFFEE780B400AF1E
:10036C0000BFBD4680BC704780B400AF00BFBD4627
:10037C0080BC704780B400AF00BFBD4680BC7047E6
:10038C0080B500AF03F0B8FC00BF80BD80B500AFF6
:10039C00024802F0C9FD00BF80BD00BF2C01002047
:1003AC0080B586B000AFF860B9607A6000237B61DD
:1003BC000AE0AFF300800146BB685A1CBA60CAB2AF
:1003CC001A707B6901337B617A697B689A42F0DB36
:1003DC007B6818461837BD4680BD80B586B000AF27
:1003EC00F860B9607A6000237B6109E0BB685A1C35
:1003FC00BA601B78184603F0B3FB7B6901337B6151
:10040C007A697B689A42F1DB7B6818461837BD46DF
:10041C0080BD80B483B000AF78604FF0FF331846D6
:10042C000C37BD4680BC704780B483B000AF786099
:10043C0039603B684FF400525A60002318460C3761
:10044C00BD4680BC704780B483B000AF7860012398
:10045C0018460C37BD4680BC704780B485B000AFE1
:10046C00F860B9607A60002318461437BD4680BC2A
:10047C007047000080B584B000AF7860114B1B68EA
:10048C00002B02D10F4B104A1A600E4B1B68FB60FD
:10049C000C4B1A687B6813446A46934207D903F0E5
:1004AC0039FC02460C2313604FF0FF3306E0054B7A
:1004BC001A687B681344034A1360FB6818461037AC
:1004CC00BD4680BD8C000020B001002080B400AF80
:1004DC00154B1B68144A43F001031360124B5A6806
:1004EC001149124B13404B600F4B1B680E4A23F003
:1004FC00847323F4803313600B4B1B680A4A23F478
:10050C0080231360084B5B68074A23F4FE03536097
:10051C00054B4FF41F029A60054B4FF000629A6036
:10052C0000BFBD4680BC7047001002400000FFF8C1
:10053C0000ED00E080B58AB000AF07F1180300228F
:10054C001A605A609A60DA6007F1100300221A6090
:10055C005A603B4600221A605A609A60DA60314B4E
:10056C004FF080421A602F4B47225A602D4B0022CD
:10057C009A602C4B4FF6FF72DA602A4B00221A61FC
:10058C00284B00229A61274801F0F8FB0346002B08
:10059C0001D0FFF78FFE4FF48053BB6107F11803B6
:1005AC001946204801F050FE0346002B01D0FFF7FE
:1005BC0081FE1C4801F068FC0346002B01D0FFF7BC
:1005CC0079FE00233B6100237B6107F11003194680
:1005DC00144802F0D1FA0346002B01D0FFF76AFE53
:1005EC0000233B6001237B600023BB600023FB6086
:1005FC003B46082219460B4801F0D6FC0346002B5B
:10060C0001D0FFF757FE3B460C221946054801F076
:10061C00CBFC0346002B01D0FFF74CFE00BF283764
:10062C00BD4680BDEC00002080B58AB000AF07F15C
:10063C00180300221A605A609A60DA6007F11003FE
:10064C0000221A605A603B4600221A605A609A6077
:10065C00DA60314B314A1A602F4B47225A602E4BCD
:10066C0000229A602C4B4FF6FF72DA602A4B002264
:10067C001A61294B00229A61274801F07FFB03463F
:10068C00002B01D0FFF716FE4FF48053BB6107F12E
:10069C0018031946204801F0D7FD0346002B01D062
:1006AC00FFF708FE1C4801F0EFFB0346002B01D0BE
:1006BC00FFF700FE00233B6100237B6107F1100371
:1006CC001946154802F058FA0346002B01D0FFF7E3
:1006DC00F1FD00233B6001237B600023BB60002302
:1006EC00FB603B46082219460B4801F05DFC0346B3
:1006FC00002B01D0FFF7DEFD3B460C2219460648C5
:10070C0001F052FC0346002B01D0FFF7D3FD00BFD4
:10071C002837BD4680BD00BFAC000020000400405F
:10072C0080B58AB000AF786007F1180300221A6018
:10073C005A609A60DA607B681B68B3F1804F24D1F1
:10074C00284BDB69274A43F00103D361254BDB6956
:10075C0003F001037B617B69224B9B69214A43F0C7
:10076C00040393611F4B9B6903F004033B613B69DA
:10077C000C23BB610023FB6100233B6207F11803D0
:10078C001946194800F0DCFA28E07B681B68174A08
:10079C00934223D1134BDB69124A43F00203D3611A
:1007AC00104BDB6903F00203FB60FB680D4B9B698C
:1007BC000C4A43F0080393610A4B9B6903F008034E
:1007CC00BB60BB680323BB610023FB6100233B625E
:1007DC0007F118031946064800F0B2FA00BF283793
:1007EC00BD4680BD001002400008014000040040DE
:1007FC00000C014080B500AF114B124A1A60104B2F
:10080C004FF4E1325A600E4B00229A600C4B0022DE
:10081C00DA600B4B00221A61094B08225A61084B13
:10082C0000229A61064B0022DA61054802F03AFA7E
:10083C000346002B01D0FFF73DFD00BF80BD00BF7C
:10084C002C0100200038014080B588B000AF7860E2
:10085C0007F1100300221A605A609A60DA607B6814
:10086C001B68204A934239D11F4B9B691E4A43F4A3
:10087C00804393611C4B9B6903F48043FB60FB68D2
:10088C00194B9B69184A43F004039361164B9B69FF
:10089C0003F00403BB60BB684FF400733B6102239D
:1008AC007B610323FB6107F1100319460F4800F02D
:1008BC0047FA4FF480633B6100237B610023BB61EB
:1008CC0007F110031946094800F03AFA00220021FA
:1008DC00252000F06FF9252000F098F900BF203793
:1008EC00BD4680BD003801400010024000080140A8
:1008FC00002103E00B4B5B58435004310A480B4B6F
:10090C0042189A42F6D30A4A02E0002342F8043B0A
:10091C00084B9A42F9D3FFF7D9FD03F001FAFFF720
:10092C0071FC7047F84D000800000020700000209A
:10093C0070000020B0010020FEE7000080B500AF81
:10094C00084B1B68074A43F010031360032000F0A8
:10095C0011F9002000F008F8FFF7BCFC0023184642
:10096C0080BD00BF0020024080B582B000AF78602F
:10097C00124B1A68124B1B7819464FF47A73B3FB5F
:10098C00F1F3B2FBF3F3184600F058F90346002BD1
:10099C0001D001230EE07B680F2B0AD80022796866
:1009AC004FF0FF3000F006F9064A7B681360002315
:1009BC0000E0012318460837BD4680BD000000202A
:1009CC00080000200400002080B400AF024B1B681C
:1009DC001846BD4680BC70476C01002080B485B0C1
:1009EC0000AF78607B6803F00703FB600C4BDB689F
:1009FC00BB60BA684FF6FF031340BB60FB681A027A
:100A0C00BB68134343F0BF6343F40033BB60044A39
:100A1C00BB68D36000BF1437BD4680BC704700BFB5
:100A2C0000ED00E080B400AF044BDB681B0A03F060
:100A3C0007031846BD4680BC704700BF00ED00E0C0
:100A4C0080B483B000AF0346FB7197F90730002BDD
:100A5C000BDBFB7903F01F02064997F907305B09A2
:100A6C00012000FA02F241F8232000BF0C37BD46EA
:100A7C0080BC704700E100E080B483B000AF034657
:100A8C003960FB7197F90730002B0ADB3B68DAB24F
:100A9C000C4997F907301201D2B20B4483F80023AA
:100AAC000AE03B68DAB20849FB7903F00F03043B18
:100ABC001201D2B20B441A7600BF0C37BD4680BC73
:100ACC00704700BF00E100E000ED00E080B489B0A9
:100ADC0000AFF860B9607A60FB6803F00703FB6154
:100AEC00FB69C3F10703042B28BF0423BB61FB691B
:100AFC000433062B02D9FB69033B00E000237B6126
:100B0C004FF0FF32BB6902FA03F3DA43BB681A40B9
:100B1C007B699A404FF0FF317B6901FA03F3D943AB
:100B2C007B680B40134318462437BD4680BC704786
:100B3C0080B582B000AF78607B68013BB3F1807FF9
:100B4C0001D301230FE00A4A7B68013B53600F215C
:100B5C004FF0FF30FFF790FF054B00229A60044BDB
:100B6C0007221A60002318460837BD4680BD00BF17
:100B7C0010E000E080B582B000AF78607B68072B96
:100B8C000FD07B68062B0CD07B68052B09D07B68BB
:100B9C00042B06D07B68032B03D092210448FFF76B
:100BAC008FFB7868FFF71AFF00BF0837BD4680BD82
:100BBC00784B000880B586B000AF0346B9607A6008
:100BCC00FB7300237B617B680F2B03D9AA210E4892
:100BDC00FFF776FBBB680F2B03D9AB210A48FFF755
:100BEC006FFBFFF71FFF78617A68B9687869FFF7C8
:100BFC006DFF024697F90F3011461846FFF73CFF80
:100C0C0000BF1837BD4680BD784B000880B582B058
:100C1C0000AF0346FB7197F90730002B03DABE21B6
:100C2C000548FFF74DFB97F907301846FFF708FF0B
:100C3C0000BF0837BD4680BD784B000880B582B038
:100C4C0000AF78607868FFF773FF034618460837E3
:100C5C00BD4680BD80B584B000AF78600023FB73C7
:100C6C007B6893F82130022B05D07B6804229A63B1
:100C7C000123FB7351E07B681B681A687B681B6857
:100C8C0022F00E021A607B681B681A687B681B686E
:100C9C0022F001021A607B681B68224A934229D019
:100CAC007B681B68204A934222D07B681B681F4AD2
:100CBC0093421AD07B681B681D4A934212D07B6802
:100CCC001B681C4A93420AD07B681B681A4A9342E1
:100CDC0002D14FF480130EE04FF080730BE04FF411
:100CEC00803308E04FF4805305E04FF4807302E04A
:100CFC00102300E00123114A53607B68012283F822
:100D0C0021207B68002283F820207B685B6B002B02
:100D1C0003D07B685B6B78689847FB7B1846103771
:100D2C00BD4680BD080002401C000240300002405D
:100D3C0044000240580002406C0002400000024097
:100D4C0080B58AB000AF7860396000237B620023E5
:100D5C003B627B689C4A934213D07B689B4A9342CC
:100D6C000FD07B689A4A93420BD07B68994A934286
:100D7C0007D07B68984A934203D0BD219748FFF770
:100D8C009FFA3B681B689BB2002B05D03B681B6825
:100D9C001B0C1B04002B03D0BE219048FFF790FACC
:100DAC003B685B68002B00F0EB813B685B68012BB8
:100DBC0000F0E6813B685B68112B00F0E1813B6839
:100DCC005B68022B00F0DC813B685B68122B00F047
:100DDC00D7813B685B68824A934200F0D1813B68C3
:100DEC005B68804A934200F0CB813B685B687E4A2B
:100DFC00934200F0C5813B685B687C4A934200F0EB
:100E0C00BF813B685B687A4A934200F0B9813B68CA
:100E1C005B68784A934200F0B3813B685B68032BB4
:100E2C0000F0AE81BF216D48FFF74AFAA8E101221C
:100E3C007B6A02FA03F3FB613B681B68FA69134097
:100E4C00BB61BA69FB699A4240F097817B685E4A44
:100E5C00934213D07B685D4A93420FD07B685C4A07
:100E6C0093420BD07B685B4A934207D07B685A4A0B
:100E7C00934203D0CD215948FFF722FA3B685B68B7
:100E8C00122B65D0122B0ED8022B4CD0022B04D86F
:100E9C00002B72D0012B1DD0B1E0032B00F0AC80E5
:100EAC00112B2BD0ABE04F4A934266D04D4A934264
:100EBC0006D84B4A934260D04C4A93425DD09EE098
:100ECC00494A934259D04B4A934256D0484A93428E
:100EDC0053D094E03B68DB68022B0BD03B68DB689B
:100EEC00012B07D03B68DB68032B03D0D5213B4893
:100EFC00FFF7E6F93B68DB683B6280E03B68DB6848
:100F0C00022B0BD03B68DB68012B07D03B68DB68FE
:100F1C00032B03D0DC213148FFF7D2F93B68DB68A7
:100F2C0004333B626BE03B68DB68022B0BD03B6805
:100F3C00DB68012B07D03B68DB68032B03D0E32174
:100F4C002648FFF7BDF93B68DB6808333B6256E087
:100F5C003B68DB68022B0BD03B68DB68012B07D0AE
:100F6C003B68DB68032B03D0EA211C48FFF7A8F988
:100F7C003B68DB680C333B6241E03B689B68002BB1
:100F8C000BD03B689B68012B07D03B689B68022BFE
:100F9C0003D0F7211148FFF793F93B689B68002BAE
:100FAC0002D104233B622AE03B689B68012B05D1EC
:100FBC0008233B627B68FA691A6120E008233B62D4
:100FCC007B68FA695A611AE000080140000C014084
:100FDC00001001400014014000180140B44B0008FF
:100FEC000000111000002110000031100000121040
:100FFC00000022100000321000233B6200BFBB69CE
:10100C00FF2B01D87B6801E07B6804337B61BB69F3
:10101C00FF2B02D87B6A9B0002E07B6A083B9B009B
:10102C003B617B691A680F213B6901FA03F3DB43CF
:10103C001A40396A3B6901FA03F31A437B691A6057
:10104C003B685B6803F08053002B00F09680524B9A
:10105C009B69514A43F0010393614F4B9B6903F029
:10106C000103BB60BB684D4A7B6A9B08023352F894
:10107C002330FB607B6A03F003039B000F2202FA10
:10108C0003F3DB43FA681340FB607B68444A9342EA
:10109C0013D07B68434A93420DD07B68424A9342FB
:1010AC0007D07B68414A934201D1032306E0042315
:1010BC0004E0022302E0012300E000237A6A02F03C
:1010CC00030292009340FA681343FB6033497B6A36
:1010DC009B080233FA6841F823203B685B6803F4F1
:1010EC008033002B06D0324B1A683149BB6913434D
:1010FC000B6006E02E4B1A68BB69DB432C4913408E
:10110C000B603B685B6803F40033002B06D0284B64
:10111C005A682749BB6913434B6006E0244B5A6855
:10112C00BB69DB43224913404B603B685B6803F4AB
:10113C008013002B06D01E4B9A681D49BB691343C4
:10114C008B6006E01A4B9A68BB69DB431849134065
:10115C008B603B685B6803F40013002B06D0144BC8
:10116C00DA681349BB691343CB6006E0104BDA68AD
:10117C00BB69DB430E491340CB607B6A01337B6256
:10118C003B681A687B6A22FA03F3002B7FF44FAE9C
:10119C0000BF2837BD4680BD001002400000014052
:1011AC0000080140000C01400010014000140140F7
:1011BC000004014080B582B000AF78600B467B80A4
:1011CC0013467B707B88002B04D07B881B0C1B0484
:1011DC00002B04D04FF4EA710E48FFF771F87B78BE
:1011EC00002B07D07B78012B04D040F2D511094895
:1011FC00FFF766F87B78002B03D07A887B681A613E
:10120C0003E07B881A047B681A6100BF0837BD466F
:10121C0080BD00BFB44B000880B586B000AF7860CD
:10122C007B68002B01D101235CE37B681B68002BDE
:10123C001CD07B681B6803F00103002B16D17B6864
:10124C001B6803F00203002B10D17B681B6803F0B2
:10125C000803002B0AD17B681B6803F00403002BE6
:10126C0004D140F26711A548FFF72AF87B681B6888
:10127C0003F00103002B00F09A807B685B68002B65
:10128C000ED07B685B68B3F5803F09D07B685B68E8
:10129C00B3F5A02F04D040F26D119848FFF710F869
:1012AC00974B5B6803F00C03042B0CD0944B5B68DE
:1012BC0003F00C03082B12D1914B5B6803F48033C1
:1012CC00B3F5803F0BD18E4B1B6803F40033002B1E
:1012DC006CD07B685B68002B68D1012302E37B68D0
:1012EC005B68B3F5803F06D1854B1B68844A43F499
:1012FC00803313602EE07B685B68002B0CD1804B35
:10130C001B687F4A23F4803313607D4B1B687C4A37
:10131C0023F4802313601DE07B685B68B3F5A02F7A
:10132C000CD1774B1B68764A43F480231360744BC3
:10133C001B68734A43F4803313600BE0704B1B68DB
:10134C006F4A23F4803313606D4B1B686C4A23F493
:10135C00802313607B685B68002B13D0FFF734FB92
:10136C00386108E0FFF730FB02463B69D31A642B67
:10137C0001D90323B6E2624B1B6803F40033002B44
:10138C00F0D014E0FFF720FB386108E0FFF71CFBFE
:10139C0002463B69D31A642B01D90323A2E2584BB2
:1013AC001B6803F40033002BF0D100E000BF7B6816
:1013BC001B6803F00203002B79D07B681B69002BA0
:1013CC0008D07B681B69012B04D040F2A1114B485B
:1013DC00FEF776FF7B685B691F2B04D94FF4D17144
:1013EC004648FEF76DFF464B5B6803F00C03002B81
:1013FC000BD0434B5B6803F00C03082B1CD1404B08
:10140C005B6803F48033002B16D13D4B1B6803F053
:10141C000203002B05D07B681B69012B01D0012333
:10142C0060E2374B1B6823F0F8027B685B69DB00DA
:10143C00334913430B603AE07B681B69002B20D0C7
:10144C00304B01221A60FFF7BFFA386108E0FFF752
:10145C00BBFA02463B69D31A022B01D9032341E2A2
:10146C00274B1B6803F00203002BF0D0244B1B68A6
:10147C0023F0F8027B685B69DB00214913430B60A6
:10148C0015E0204B00221A60FFF79EFA386108E045
:10149C00FFF79AFA02463B69D31A022B01D90323B0
:1014AC0020E2174B1B6803F00203002BF0D17B6882
:1014BC001B6803F00803002B48D07B689B69002B4A
:1014CC0008D07B689B69012B04D04FF4F1710B4859
:1014DC00FEF7F6FE7B689B69002B21D00A4B01229C
:1014EC001A60FFF771FA386110E0FFF76DFA0246E7
:1014FC003B69D31A022B09D90323F3E1F04B000803
:10150C00001002400000424280044242674B5B6A7A
:10151C0003F00203002BE8D0012000F011FC15E0D1
:10152C00634B00221A60FFF74FFA386108E0FFF7AF
:10153C004BFA02463B69D31A022B01D90323D1E1A2
:10154C005A4B5B6A03F00203002BF0D17B681B68DB
:10155C0003F00403002B00F0C0800023FB757B68B4
:10156C00DB68002B0CD07B68DB68012B08D07B6818
:10157C00DB68052B04D040F211214E48FEF7A0FE8B
:10158C004A4BDB6903F08053002B0DD1474BDB69D1
:10159C00464A43F08053D361444BDB6903F08053DC
:1015AC00BB60BB680123FB75434B1B6803F4807362
:1015BC00002B18D1404B1B683F4A43F480731360D7
:1015CC00FFF702FA386108E0FFF7FEF902463B69C3
:1015DC00D31A642B01D9032384E1374B1B6803F422
:1015EC008073002BF0D07B68DB68012B06D12F4B6E
:1015FC001B6A2E4A43F0010313622DE07B68DB6803
:10160C00002B0CD1294B1B6A284A23F001031362CF
:10161C00264B1B6A254A23F0040313621CE07B68EB
:10162C00DB68052B0CD1214B1B6A204A43F00403C9
:10163C0013621E4B1B6A1D4A43F0010313620BE03D
:10164C001A4B1B6A194A23F001031362174B1B6ACE
:10165C00164A23F0040313627B68DB68002B15D059
:10166C00FFF7B2F938610AE0FFF7AEF902463B69C1
:10167C00D31A41F28832934201D9032332E10B4B46
:10168C001B6A03F00203002BEED01DE0FFF79CF960
:10169C00386113E0FFF798F902463B69D31A41F21F
:1016AC00883293420AD903231CE100BF0010024088
:1016BC0080044242F04B0008007000408B4B1B6AC8
:1016CC0003F00203002BE5D1FB7D012B05D1874BE9
:1016DC00DB69864A23F08053D3617B68DB69002B7E
:1016EC000CD07B68DB69012B08D07B68DB69022B93
:1016FC0004D040F2AF217E48FEF7E2FD7B68DB6947
:10170C00002B00F0EE80794B5B6803F00C03082B88
:10171C0000F0CE807B68DB69022B40F0B2807B68E6
:10172C001B6A002B09D07B681B6AB3F5803F04D081
:10173C004FF42E716E48FEF7C3FD7B685B6A002B7D
:10174C004AD07B685B6AB3F5802F45D07B685B6AB7
:10175C00B3F5002F40D07B685B6AB3F5402F3BD0CC
:10176C007B685B6AB3F5801F36D07B685B6AB3F528
:10177C00A01F31D07B685B6AB3F5C01F2CD07B688F
:10178C005B6AB3F5E01F27D07B685B6AB3F5001F7B
:10179C0022D07B685B6AB3F5101F1DD07B685B6A37
:1017AC00B3F5201F18D07B685B6AB3F5301F13D0DC
:1017BC007B685B6AB3F5401F0ED07B685B6AB3F540
:1017CC00501F09D07B685B6AB3F5601F04D040F2F0
:1017DC00B9214748FEF774FD464B00221A60FFF70B
:1017EC00F3F8386108E0FFF7EFF802463B69D31ACB
:1017FC00022B01D9032375E03C4B1B6803F00073EB
:10180C00002BF0D17B681B6AB3F5803F16D17B6847
:10181C009B68002B09D07B689B68B3F5003F04D014
:10182C0040F2CF213248FEF74BFD304B5B6823F47E
:10183C0000327B689B682D4913434B602B4B5B68D4
:10184C0023F474127B68196A7B685B6A0B43274923
:10185C0013434B60274B01221A60FFF7B5F8386130
:10186C0008E0FFF7B1F802463B69D31A022B01D905
:10187C00032337E01D4B1B6803F00073002BF0D0E3
:10188C002FE01C4B00221A60FFF79EF8386108E02D
:10189C00FFF79AF802463B69D31A022B01D90323AE
:1018AC0020E0124B1B6803F00073002BF0D118E002
:1018BC007B68DB69012B01D1012313E00B4B5B68C7
:1018CC00FB60FB6803F480327B681B6A9A4206D18A
:1018DC00FB6803F470127B685B6A9A4201D00123A7
:1018EC0000E0002318461837BD4680BD00100240AA
:1018FC00F04B00086000424280B584B000AF7860C5
:10190C0039607B68002B01D1012376E17B681B6871
:10191C0003F00103002B16D17B681B6803F0020354
:10192C00002B10D17B681B6803F00403002B0AD139
:10193C007B681B6803F00803002B04D14FF44E7135
:10194C007448FEF7BDFC3B68002B0AD03B68012BAA
:10195C0007D03B68022B04D040F239316D48FEF7BA
:10196C00AFFC6D4B1B6803F007033A689A4210D921
:10197C00694B1B6823F0070267493B6813430B60F4
:10198C00654B1B6803F007033A689A4201D00123A8
:10199C0033E17B681B6803F00203002B49D07B68A2
:1019AC001B6803F00403002B05D05C4B5B685B4A9F
:1019BC0043F4E06353607B681B6803F00803002B5F
:1019CC0005D0564B5B68554A43F4605353607B68B3
:1019DC009B68002B24D07B689B68802B20D07B6875
:1019EC009B68902B1CD07B689B68A02B18D07B68C5
:1019FC009B68B02B14D07B689B68C02B10D07B6885
:101A0C009B68D02B0CD07B689B68E02B08D07B6844
:101A1C009B68F02B04D040F25F313E48FEF750FC3F
:101A2C003E4B5B6823F0F0027B689B683B49134399
:101A3C004B607B681B6803F00103002B51D07B6863
:101A4C005B68002B0CD07B685B68012B08D07B6833
:101A5C005B68022B04D040F266312E48FEF730FC56
:101A6C007B685B68012B07D12C4B1B6803F400339C
:101A7C00002B15D10123C0E07B685B68022B07D1DA
:101A8C00264B1B6803F00073002B09D10123B4E033
:101A9C00224B1B6803F00203002B01D10123ACE0A5
:101AAC001E4B5B6823F003027B685B681B49134386
:101ABC004B60FEF789FFF8600AE0FEF785FF0246EF
:101ACC00FB68D31A41F28832934201D9032394E084
:101ADC00124B5B6803F00C027B685B689B009A42BC
:101AEC00EBD10D4B1B6803F007033A689A4217D2EF
:101AFC00094B1B6823F0070207493B6813430B6033
:101B0C00054B1B6803F007033A689A4208D001237F
:101B1C0073E000BFF04B00080020024000100240B0
:101B2C007B681B6803F00403002B25D07B68DB6803
:101B3C00002B18D07B68DB68B3F5806F13D07B6803
:101B4C00DB68B3F5A06F0ED07B68DB68B3F5C06FB4
:101B5C0009D07B68DB68B3F5E06F04D04FF4697192
:101B6C002848FEF7ADFB284B5B6823F4E0627B68EA
:101B7C00DB68254913434B607B681B6803F0080343
:101B8C00002B26D07B681B69002B18D07B681B6947
:101B9C00B3F5806F13D07B681B69B3F5A06F0ED0C3
:101BAC007B681B69B3F5C06F09D07B681B69B3F503
:101BBC00E06F04D040F2AB311248FEF781FB124BC0
:101BCC005B6823F460527B681B69DB000E4913438E
:101BDC004B6000F021F801460B4B5B681B0903F0CE
:101BEC000F030A4AD35C21FA03F3094A1360094B29
:101BFC001B681846FEF7B8FE002318461037BD4682
:101C0C0080BD00BFF04B000800100240184D0008CA
:101C1C00000000200400002090B48AB000AF2A4BD2
:101C2C003C1D0FCB84E80F00284B1B883B80002306
:101C3C00FB610023BB6100237B6200237B610023DB
:101C4C003B62234B5B68FB61FB6903F00C03042BC9
:101C5C0002D0082B03D02DE01E4B3B622DE0FB691C
:101C6C009B0C03F00F0307F12802134413F8243CD8
:101C7C007B61FB6903F48033002B13D0144B5B683E
:101C8C005B0C03F0010307F12802134413F8283C02
:101C9C00BB617B690F4A02FB03F2BB69B2FBF3F336
:101CAC007B6204E07B690C4A02FB03F37B627B6A78
:101CBC003B6202E0074B3B6200BF3B6A1846283789
:101CCC00BD4690BC704700BF284C0008384C00083B
:101CDC000010024000127A0000093D0080B400AFF1
:101CEC00024B1B681846BD4680BC704700000020A4
:101CFC0080B500AFFFF7F2FF0146054B5B681B0A8E
:101D0C0003F00703034AD35C21FA03F3184680BDA2
:101D1C0000100240284D000880B500AFFFF7DEFF31
:101D2C000146054B5B68DB0A03F00703034AD35CEF
:101D3C0021FA03F3184680BD00100240284D00081C
:101D4C0080B485B000AF78600A4B1B680A4AA2FBCE
:101D5C0003235B0A7A6802FB03F3FB6000BFFB689A
:101D6C005A1EFA60002BF9D100BF1437BD4680BC57
:101D7C00704700BF00000020D34D621080B582B0C8
:101D8C0000AF78607B68002B01D101236FE07B688A
:101D9C001B68394A934213D07B681B68B3F1804FA0
:101DAC000ED07B681B68354A934209D07B681B6850
:101DBC00334A934204D04FF489713248FEF780FACB
:101DCC007B689B68002B14D07B689B68102B10D011
:101DDC007B689B68202B0CD07B689B68402B08D0C1
:101DEC007B689B68602B04D040F213112548FEF7EA
:101DFC0067FA7B681B69002B0ED07B681B69B3F5F7
:101E0C00807F09D07B681B69B3F5007F04D04FF449
:101E1C008A711C48FEF754FA7B689B69002B08D02A
:101E2C007B689B69802B04D040F215111548FEF796
:101E3C0047FA7B6893F83D30DBB2002B06D17B6808
:101E4C00002283F83C207868FEF76AFC7B6802224B
:101E5C0083F83D207B681A687B680433194610466A
:101E6C0000F084FC7B68012283F83D200023184697
:101E7C000837BD4680BD00BF002C01400004004067
:101E8C00000800403C4C000880B582B000AF786080
:101E9C007B68002B01D101236FE07B681B68394AFA
:101EAC00934213D07B681B68B3F1804F0ED07B68D4
:101EBC001B68354A934209D07B681B68334A9342AE
:101ECC0004D040F2D9613248FEF7FAF97B689B687E
:101EDC00002B14D07B689B68102B10D07B689B6800
:101EEC00202B0CD07B689B68402B08D07B689B68B0
:101EFC00602B04D040F2DA612548FEF7E1F97B68EB
:101F0C001B69002B0ED07B681B69B3F5807F09D051
:101F1C007B681B69B3F5007F04D040F2DB611C4881
:101F2C00FEF7CEF97B689B69002B08D07B689B6918
:101F3C00802B04D040F2DC611548FEF7C1F97B68B8
:101F4C0093F83D30DBB2002B06D17B68002283F87E
:101F5C003C20786800F01EF87B68022283F83D2054
:101F6C007B681A687B6804331946104600F0FEFB48
:101F7C007B68012283F83D20002318460837BD46B4
:101F8C0080BD00BF002C0140000400400008004050
:101F9C003C4C000880B483B000AF786000BF0C37B5
:101FAC00BD4680BC7047000080B584B000AFF860BF
:101FBC00B9607A60FB681B687A4A934213D0FB685D
:101FCC001B68B3F1804F0ED0FB681B68764A9342B6
:101FDC0009D0FB681B68754A934204D040F68851BF
:101FEC007348FEF76DF9BB681B68002B0CD0BB68FF
:101FFC001B68022B08D0BB681B680A2B04D040F668
:10200C0089516B48FEF75CF9BB685B68012B0CD0FF
:10201C00BB685B68022B08D0BB685B68032B04D0E1
:10202C0040F68A516248FEF74BF9BB689B68002B5F
:10203C0010D0BB689B68042B0CD0BB689B68082B2A
:10204C0008D0BB689B680C2B04D040F68B515848C9
:10205C00FEF736F9BB68DB680F2B04D940F68C51C0
:10206C005348FEF72DF9FB6893F83C30012B01D156
:10207C000223DDE0FB68012283F83C20FB6802228E
:10208C0083F83D207B68002B1BD1FB681868BB686C
:10209C001968BB685A68BB68DB6800F0C9FBFB6851
:1020AC001B689A69FB681B6822F00C029A61FB683A
:1020BC001B689969BB689A68FB681B680A439A613C
:1020CC00ADE07B68042B35D1FB681B68354A934225
:1020DC0013D0FB681B68B3F1804F0ED0FB681B68F4
:1020EC00314A934209D0FB681B68304A934204D0B2
:1020FC0040F6A4512E48FEF7E3F8FB681868BB685D
:10210C001968BB685A68BB68DB6800F019FCFB688F
:10211C001B689A69FB681B6822F440629A61FB6831
:10212C001B689969BB689B681A02FB681B680A43A9
:10213C009A6174E07B68082B3CD1FB681B68194AD8
:10214C00934213D0FB681B68B3F1804F0ED0FB6831
:10215C001B68154A934209D0FB681B68134A9342CB
:10216C0004D040F6B4511248FEF7AAF8FB68186880
:10217C00BB681968BB685A68BB68DB6800F04BFC2D
:10218C00FB681B68DA69FB681B6822F00C02DA61D9
:10219C00FB681B68D969BB689A68FB681B680A43B3
:1021AC00DA613CE0002C01400004004000080040D3
:1021BC003C4C0008FB681B681F4A934213D0FB6819
:1021CC001B68B3F1804F0ED0FB681B681B4A93420F
:1021DC0009D0FB681B681A4A934204D040F6C451DC
:1021EC001848FEF76DF8FB681868BB681968BB687F
:1021FC005A68BB68DB6800F049FCFB681B68DA694D
:10220C00FB681B6822F44062DA61FB681B68D969C1
:10221C00BB689B681A02FB681B680A43DA61FB689F
:10222C00012283F83D20FB68002283F83C20002328
:10223C0018461037BD4680BD002C014000040040FC
:10224C00000800403C4C000880B584B000AF7860BA
:10225C0039607B6893F83C30012B01D1022379E281
:10226C007B68012283F83C207B68022283F83D20A6
:10227C003B681B68B3F5805F29D03B681B68B3F5DE
:10228C00005F24D03B681B68002B20D03B681B6888
:10229C00102B1CD03B681B68202B18D03B681B688C
:1022AC00302B14D03B681B68402B10D03B681B684C
:1022BC00502B0CD03B681B68602B08D03B681B680C
:1022CC00702B04D041F28A119648FDF7F9FF7B6818
:1022DC001B689B68FB60FB6823F07703FB60FB6863
:1022EC0023F47F43FB607B681B68FA689A603B6849
:1022FC001B68402B00F0B681402B0FD8102B00F040
:10230C00FD81102B03D8002B00F0F88119E2202B53
:10231C0000F0F481302B00F0F18112E2702B2ED002
:10232C00702B06D8502B00F00581602B00F04E81ED
:10233C0007E2B3F5805F04D0B3F5005F00F08A804C
:10234C00FFE17B681B68784A934200F0F9817B6857
:10235C001B68B3F1804F00F0F3817B681B68734AF4
:10236C00934200F0ED817B681B68714A934200F048
:10237C00E78141F296116B48FDF7A2FFE0E17B6823
:10238C001B68694A934213D07B681B68B3F1804F7A
:10239C000ED07B681B68654A934209D07B681B682A
:1023AC00634A934204D041F29D115E48FDF788FFC9
:1023BC003B689B68002B13D03B689B68B3F5805F30
:1023CC000ED03B689B68B3F5005F09D03B689B68F7
:1023DC00B3F5405F04D04FF48D515248FDF770FFB8
:1023EC003B685B68B3F5004F14D03B685B68002B0F
:1023FC0010D03B685B68002B0CD03B685B68022BF1
:10240C0008D03B685B680A2B04D041F2A111454807
:10241C00FDF756FF3B68DB680F2B04D941F2A21184
:10242C004048FDF74DFF7B6818683B6899683B682E
:10243C005A683B68DB6800F07FFB7B681B689B6815
:10244C00FB60FB6843F07703FB607B681B68FA68F2
:10245C009A6076E17B681B68334A934213D07B68A1
:10246C001B68B3F1804F0ED07B681B682F4A9342D8
:10247C0009D07B681B682E4A934204D041F2B511F7
:10248C002848FDF71DFF3B689B68002B13D03B6869
:10249C009B68B3F5805F0ED03B689B68B3F5005F1B
:1024AC0009D03B689B68B3F5405F04D041F2B8118A
:1024BC001C48FDF705FF3B685B68B3F5004F14D073
:1024CC003B685B68002B10D03B685B68002B0CD022
:1024DC003B685B68022B08D03B685B680A2B04D016
:1024EC0041F2B9110F48FDF7EBFE3B68DB680F2B8F
:1024FC0004D941F2BA110B48FDF7E2FE7B6818686B
:10250C003B6899683B685A683B68DB6800F014FBD1
:10251C007B681B689A687B681B6842F480429A60EF
:10252C000FE100BF3C4C0008002C014000040040AF
:10253C00000800407B681B68884A934213D07B6874
:10254C001B68B3F1804F0ED07B681B68844A9342A2
:10255C0009D07B681B68834A934204D041F2C911AD
:10256C008148FDF7ADFE3B685B68B3F5004F14D0B6
:10257C003B685B68002B10D03B685B68002B0CD071
:10258C003B685B68022B08D03B685B680A2B04D065
:10259C0041F2CC117448FDF793FE3B68DB680F2BBE
:1025AC0004D941F2CD117048FDF78AFE7B6818689A
:1025BC003B6859683B68DB681A4600F093F97B6806
:1025CC001B685021184600F09DFABAE07B681B6826
:1025DC00624A934213D07B681B68B3F1804F0ED0D4
:1025EC007B681B685E4A934209D07B681B685D4A16
:1025FC00934204D041F2D9115B48FDF761FE3B6870
:10260C005B68B3F5004F14D03B685B68002B10D0AF
:10261C003B685B68002B0CD03B685B68022B08D0D6
:10262C003B685B680A2B04D041F2DC114E48FDF785
:10263C0047FE3B68DB680F2B04D941F2DD114A4899
:10264C00FDF73EFE7B6818683B6859683B68DB68A1
:10265C001A4600F0B1F97B681B686021184600F03F
:10266C0051FA6EE07B681B683C4A934213D07B683E
:10267C001B68B3F1804F0ED07B681B68384A9342BD
:10268C0009D07B681B68374A934204D041F2E911A8
:10269C003548FDF715FE3B685B68B3F5004F14D069
:1026AC003B685B68002B10D03B685B68002B0CD040
:1026BC003B685B68022B08D03B685B680A2B04D034
:1026CC0041F2EC112848FDF7FBFD3B68DB680F2B52
:1026DC0004D941F2ED112448FDF7F2FD7B6818682E
:1026EC003B6859683B68DB681A4600F0FBF87B686E
:1026FC001B684021184600F005FA22E07B681B6835
:10270C00164A934213D07B681B68B3F1804F0ED0EE
:10271C007B681B68124A934209D07B681B68114A7C
:10272C00934204D041F2FC110F48FDF7C9FD7B68C0
:10273C001A683B681B681946104600F0E3F900E084
:10274C0000BF7B68012283F83D207B68002283F860
:10275C003C20002318461037BD4680BD002C01409C
:10276C0000040040000800403C4C000880B485B0D8
:10277C0000AF786039607B681B68FB607B68294A16
:10278C0093420BD07B68B3F1804F07D07B68264A0D
:10279C00934203D07B68254A934208D1FB6823F00F
:1027AC007003FB603B685B68FA681343FB607B68F3
:1027BC001C4A93420BD07B68B3F1804F07D07B68E7
:1027CC00194A934203D07B68184A934208D1FB689C
:1027DC0023F44073FB603B68DB68FA681343FB60CF
:1027EC00FB6823F080023B685B691343FB607B68EA
:1027FC00FA681A603B689A687B68DA623B681A6808
:10280C007B689A627B68074A934203D13B681A69DA
:10281C007B681A637B6801225A6100BF1437BD467E
:10282C0080BC7047002C01400004004000080040B0
:10283C0080B487B000AFF860B9607A603B60FB6829
:10284C001B6A23F00102FB681A62FB689B697B61BF
:10285C00FB681B6A3B61FB681F4A93420BD0FB6809
:10286C00B3F1804F07D0FB681C4A934203D0FB683E
:10287C001B4A934201D1012300E00023002B08D016
:10288C007B6923F003037B617A697B6813437B616B
:10289C0003E07B6943F001037B617B6923F0F00368
:1028AC007B613B681B01DBB27A6913437B613B693B
:1028BC0023F00A033B61BB6803F00A033A69134334
:1028CC003B61FB687A699A61FB683A691A6200BFDE
:1028DC001C37BD4680BC7047002C014000040040F2
:1028EC000008004080B487B000AFF860B9607A602F
:1028FC00FB681B6A7B61FB681B6A23F00102FB68A7
:10290C001A62FB689B693B613B6923F0F0033B61F6
:10291C007B681B013A6913433B617B6923F00A0313
:10292C007B617A69BB6813437B61FB683A699A6186
:10293C00FB687A691A6200BF1C37BD4680BC7047C1
:10294C0080B487B000AFF860B9607A603B60FB6818
:10295C001B6A23F01002FB681A62FB689B697B619F
:10296C00FB681B6A3B617B6923F440737B617B686A
:10297C001B027A6913437B617B6923F470437B618F
:10298C003B681B039BB27A6913437B613B6923F061
:10299C00A0033B61BB681B0103F0A0033A6913431E
:1029AC003B61FB687A699A61FB683A691A6200BFFD
:1029BC001C37BD4680BC704780B487B000AFF86050
:1029CC00B9607A60FB681B6A23F01002FB681A621C
:1029DC00FB689B697B61FB681B6A3B617B6923F429
:1029EC0070437B617B681B037A6913437B613B6992
:1029FC0023F0A0033B61BB681B013A6913433B61A5
:102A0C00FB687A699A61FB683A691A6200BF1C37E5
:102A1C00BD4680BC704780B487B000AFF860B96029
:102A2C007A603B60FB681B6A23F48072FB681A6255
:102A3C00FB68DB697B61FB681B6A3B617B6923F08C
:102A4C0003037B617A697B6813437B617B6923F0A9
:102A5C00F0037B613B681B01DBB27A6913437B613A
:102A6C003B6923F400733B61BB681B0203F40073E6
:102A7C003A6913433B61FB687A69DA61FB683A692E
:102A8C001A6200BF1C37BD4680BC704780B487B04B
:102A9C0000AFF860B9607A603B60FB681B6A23F496
:102AAC008052FB681A62FB68DB697B61FB681B6AFE
:102ABC003B617B6923F440737B617B681B027A6901
:102ACC0013437B617B6923F470437B613B681B037D
:102ADC009BB27A6913437B613B6923F400533B61DE
:102AEC00BB681B0303F400533A6913433B61FB6857
:102AFC007A69DA61FB683A691A6200BF1C37BD4615
:102B0C0080BC704780B485B000AF786039607B685A
:102B1C009B68FB60FB6823F07003FB603A68FB6802
:102B2C00134343F00703FB607B68FA689A6000BFAD
:102B3C001437BD4680BC704780B487B000AFF860D6
:102B4C00B9607A603B60FB689B687B617B6923F4AE
:102B5C007F437B613B681A027B681A43BB68134353
:102B6C007A6913437B61FB687A699A6000BF1C37F2
:102B7C00BD4680BC7047000080B584B000AF786063
:102B8C0039607B681B68434A934213D07B681B688F
:102B9C00B3F1804F0ED07B681B683F4A934209D03B
:102BAC007B681B683D4A934204D040F264613C4808
:102BBC00FDF786FB3B681B68002B20D03B681B682D
:102BCC00102B1CD03B681B68202B18D03B681B6853
:102BDC00302B14D03B681B68402B10D03B681B6813
:102BEC00502B0CD03B681B68602B08D03B681B68D3
:102BFC00702B04D040F265612948FDF761FB3B68FE
:102C0C005B68802B08D03B685B68002B04D040F2DB
:102C1C0066612348FDF754FB7B6893F83C30012B2D
:102C2C0001D1022332E07B68012283F83C207B68CF
:102C3C00022283F83D207B681B685B68FB607B6825
:102C4C001B689B68BB60FB6823F07003FB603B68F0
:102C5C001B68FA681343FB60BB6823F08003BB60FE
:102C6C003B685B68BA681343BB607B681B68FA6897
:102C7C005A607B681B68BA689A607B68012283F88B
:102C8C003D207B68002283F83C2000231846103737
:102C9C00BD4680BD002C01400004004000080040EF
:102CAC00744C000880B582B000AF78607B68002B54
:102CBC0001D1012392E07B689B69002B2CD07B68AF
:102CCC001B68484A93420ED07B681B68464A934265
:102CDC0009D07B681B68454A934204D04FF4A3711A
:102CEC004348FDF7EDFA7B689B69002B28D07B6885
:102CFC009B69B3F5807F23D07B689B69B3F5007F1C
:102D0C001ED07B689B69B3F5407F19D040F2471108
:102D1C003748FDF7D5FA13E07B681B68314A9342BC
:102D2C000ED07B681B68304A934209D07B681B68C5
:102D3C002E4A934204D040F24B112D48FDF7C0FAB5
:102D4C007B689B68002B09D07B689B68B3F5805F20
:102D5C0004D040F24D112648FDF7B2FA7B6893F887
:102D6C003930DBB2002B06D17B68002283F8382087
:102D7C007868FDF769FD7B68242283F839207B682D
:102D8C001B68DA687B681B6822F40052DA6078688A
:102D9C0000F04AFB7B681B681A697B681B6822F48D
:102DAC0090421A617B681B685A697B681B6822F029
:102DBC002A025A617B681B68DA687B681B6842F4DC
:102DCC000052DA607B680022DA637B68202283F889
:102DDC0039207B68202283F83A20002318460837D4
:102DEC00BD4680BD00380140004400400048004012
:102DFC00B04C000880B588B002AFF860B9603B6099
:102E0C001346FB8000237B61FB6893F83930DBB2FF
:102E1C00202B40F08380BB68002B02D0FB88002B5A
:102E2C0001D101237BE0FB6893F83830012B01D1F1
:102E3C00022374E0FB68012283F83820FB6800222F
:102E4C00DA63FB68212283F83920FDF7BDFD786138
:102E5C00FB68FA889A84FB68FA88DA8442E0FB689B
:102E6C00DB8C9BB2013B9AB2FB68DA84FB689B68F3
:102E7C00B3F5805F22D13B6800937B6900228021EF
:102E8C00F86800F068F90346002B01D0032346E0F4
:102E9C00BB683B613B691B881A46FB681B68C2F325
:102EAC0008025A60FB681B69002B03D1BB68023314
:102EBC00BB6017E0BB680133BB6013E03B68009359
:102ECC007B6900228021F86800F045F90346002B4D
:102EDC0001D0032323E0BB685A1CBA601A78FB6844
:102EEC001B685A60FB68DB8C9BB2002BB7D13B682C
:102EFC0000937B6900224021F86800F02CF903460E
:102F0C00002B01D003230AE0FB68202283F8392030
:102F1C00FB68002283F83820002300E002231846C7
:102F2C001837BD4680BD000080B588B000AF786012
:102F3C007B681B681B68FB617B681B68DB68BB617B
:102F4C007B681B685B697B6100233B610023FB6032
:102F5C00FB6903F00F033B613B69002B0DD1FB694F
:102F6C0003F02003002B08D0BB6903F02003002BD7
:102F7C0003D0786800F0D7F9CCE03B69002B00F067
:102F8C00AB807B6903F00103002B05D1BB6903F413
:102F9C009073002B00F0A080FB6903F00103002B61
:102FAC000AD0BB6903F48073002B05D07B68DB6B04
:102FBC0043F001027B68DA63FB6903F00403002B26
:102FCC000AD07B6903F00103002B05D07B68DB6B17
:102FDC0043F002027B68DA63FB6903F00203002B07
:102FEC000AD07B6903F00103002B05D07B68DB6BF7
:102FFC0043F004027B68DA63FB6903F00803002BDF
:10300C000AD07B6903F00103002B05D07B68DB6BD6
:10301C0043F008027B68DA637B68DB6B002B78D0AB
:10302C00FB6903F02003002B07D0BB6903F02003DE
:10303C00002B02D0786800F076F97B681B685B691E
:10304C0003F04003002B14BF01230023DBB2FB6011
:10305C007B68DB6B03F00803002B02D1FB68002BB1
:10306C0031D0786800F0C1F87B681B685B6903F0AD
:10307C004003002B23D07B681B685A697B681B6854
:10308C0022F040025A617B685B6B002B13D07B688B
:10309C005B6B224A5A637B685B6B1846FDF7DAFD63
:1030AC000346002B16D07B685B6B5B6B7A68526BAC
:1030BC00104698470EE0786800F044F80AE078680B
:1030CC0000F040F806E0786800F03CF87B680022DD
:1030DC00DA631EE000BF1CE0FB6903F08003002BE9
:1030EC0008D0BB6903F08003002B03D0786800F094
:1030FC00ADF80FE0FB6903F04003002B0AD0BB696D
:10310C0003F04003002B05D0786800F0F4F800BF02
:10311C0000E000BF2037BD4680BD00BF3132000843
:10312C0080B483B000AF786000BF0C37BD4680BC64
:10313C00704780B483B000AF786000BF0C37BD46D9
:10314C0080BC704780B483B000AF786000BF0C3790
:10315C00BD4680BC704780B584B000AFF860B960E4
:10316C003B601346FB712CE0BB69B3F1FF3F28D0E9
:10317C00BB69002B07D0FDF727FC02463B68D31A2E
:10318C00BA699A421DD2FB681B68DA68FB681B6837
:10319C0022F4D072DA60FB681B685A69FB681B6802
:1031AC0022F001025A61FB68202283F83920FB6867
:1031BC00202283F83A20FB68002283F8382003236E
:1031CC000FE0FB681B681A68BB681340BA689A4228
:1031DC000CBF01230023DBB21A46FB799A42C3D001
:1031EC00002318461037BD4680BD80B483B000AFB5
:1031FC0078607B681B68DA687B681B6822F49072C5
:10320C00DA607B681B685A697B681B6822F00102D4
:10321C005A617B68202283F83A2000BF0C37BD46E8
:10322C0080BC704780B584B000AF78607B685B6A07
:10323C00FB60FB680022DA85FB680022DA84F86800
:10324C00FFF780FF00BF1037BD4680BD80B485B04E
:10325C0000AF78607B6893F83930DBB2212B44D116
:10326C007B689B68B3F5805F1AD17B681B6AFB6037
:10327C00FB681B881A467B681B68C2F308025A60FD
:10328C007B681B69002B05D17B681B6A9A1C7B68C9
:10329C001A620EE07B681B6A5A1C7B681A6208E093
:1032AC007B681B6A591C7A6811621A787B681B68E8
:1032BC005A607B68DB8C9BB2013B9BB27A681946E7
:1032CC00D184002B0FD17B681B68DA687B681B6884
:1032DC0022F08002DA607B681B68DA687B681B6806
:1032EC0042F04002DA60002300E002231846143753
:1032FC00BD4680BC704780B582B000AF78607B68FB
:10330C001B68DA687B681B6822F04002DA607B6815
:10331C00202283F839207868FFF702FF0023184633
:10332C000837BD4680BD80B584B000AF78607B683F
:10333C0093F83A30DBB2222B71D17B689B68B3F5E2
:10334C00805F23D17B689B6AFB607B681B69002BC9
:10335C000ED17B681B685B689BB2C3F308039AB2FF
:10336C00FB681A807B689B6A9A1C7B689A6229E0CE
:10337C007B681B685B689BB2DBB29AB2FB681A80F5
:10338C007B689B6A5A1C7B689A621BE07B681B6992
:10339C00002B0AD17B681B6858687B689B6A591C98
:1033AC007A689162C2B21A700CE07B681B685B6829
:1033BC00DAB27B689B6A581C7968886202F07F02DB
:1033CC00D2B21A707B68DB8D9BB2013B9BB27A68E0
:1033DC001946D185002B20D17B681B68DA687B6885
:1033EC001B6822F02002DA607B681B68DA687B6855
:1033FC001B6822F48072DA607B681B685A697B68F0
:10340C001B6822F001025A617B68202283F83A2063
:10341C007868FFF78EFE002302E0002300E0022311
:10342C0018461037BD4680BD80B584B000AF7860BB
:10343C007B685B68844A934204D940F6FD3183482B
:10344C00FCF73EFF7B68DB68002B09D07B68DB68F0
:10345C00B3F5005F04D040F6FE317C48FCF730FF3A
:10346C007B681B69002B0ED07B681B69B3F5806FE2
:10347C0009D07B681B69B3F5C06F04D040F6FF31EF
:10348C007248FCF71DFF7B685A694FF6F3731340C3
:10349C00002B03D17B685B69002B04D14FF4406196
:1034AC006A48FCF70DFF7B681B681B6923F44051CD
:1034BC007B68DA687B681B680A431A617B689A68C8
:1034CC007B681B691A437B685B691343FB607B68F1
:1034DC001B68DB6823F4B05323F00C037A68126882
:1034EC00F9680B43D3607B681B685B6923F44071FC
:1034FC007B689A697B681B680A435A617B681B6806
:10350C00534A93424ED1FEF707FCB860BA68134693
:10351C009B0013449A001A447B685B689B00B2FBC7
:10352C00F3F34C4AA2FB03235B091901BA68134657
:10353C009B0013449A001A447B685B689B00B2FBA7
:10354C00F3F2444BA3FB02035B09642000FB03F37F
:10355C00D31A1B0132333F4AA2FB03235B0903F04E
:10356C00F0031944BA6813469B0013449A001A449A
:10357C007B685B689B00B2FBF3F2364BA3FB020348
:10358C005B09642000FB03F3D31A1B013233314A6D
:10359C00A2FB03235B0903F00F027B681B680A4440
:1035AC009A604DE0FEF7A4FBB860BA6813469B0026
:1035BC0013449A001A447B685B689B00B2FBF3F3DC
:1035CC00244AA2FB03235B091901BA6813469B002A
:1035DC0013449A001A447B685B689B00B2FBF3F2BD
:1035EC001C4BA3FB02035B09642000FB03F3D31AFF
:1035FC001B013233174AA2FB03235B0903F0F003D0
:10360C001944BA6813469B0013449A001A447B6809
:10361C005B689B00B2FBF3F20E4BA3FB02035B094E
:10362C00642000FB03F3D31A1B013233094AA2FBBB
:10363C0003235B0903F00F027B681B680A449A6042
:10364C0000BF1037BD4680BD20AA4400B04C000816
:10365C00003801401F85EB5180B400AF074B0022AE
:10366C001A60064B00225A60044B00229A60034BEE
:10367C000122DA6000BFBD4680BC7047700100209B
:10368C0080B400AF224B1A68214B5B68D31A1B0223
:10369C001F4A13611E4BDB691D4A91681C4AD26894
:1036AC000A4402FB03F3002B00DAFF331B121A4609
:1036BC00174B5A61164B1A69154B5B69D31A144A8E
:1036CC009361134BDA69124B9B691344104AD36113
:1036DC000F4BDB69FF2B07DC0D4BDB6913F1FF0F85
:1036EC0002DB0B4B0022DA61094B1A6A084BDB69CF
:1036FC001344074A1362064B1B6A002B00DAFF3394
:10370C001B129AB2024B9A8400BFBD4680BC704714
:10371C007001002080B500AF034B00221A70FFF738
:10372C009BFF00BF80BD00BF9801002098B500AF83
:10373C00002000F093F903461A46454B1A6001200D
:10374C0000F08CF903461A46414B5A60022000F0F7
:10375C0085F903465C1E032000F080F90346013B0B
:10376C005B0023445B003A4A9360394B0122DA60D8
:10377C00FFF786FF364B9B8C5B0B9BB2DAB2354B5B
:10378C005A70344B5B781A46334B9A5C314B9A70B7
:10379C00304B9B7803F00103DBB21A464FF4004127
:1037AC002E48FDF707FD2B4B9B785B08DBB203F033
:1037BC000103DBB21A4608212948FDF7FBFC254B17
:1037CC009B789B08DBB203F00103DBB21A46102195
:1037DC002348FDF7EFFC1F4B9B78DB08DBB203F0B3
:1037EC000103DBB21A4620211D48FDF7E3FC194BFF
:1037FC009B781B09DBB203F00103DBB21A464021B4
:10380C001748FDF7D7FC134B9B785B09DBB203F031
:10381C000103DBB21A4680211148FDF7CBFC0D4B9E
:10382C009B789B09DBB203F00103DBB21A464FF421
:10383C0080710B48FDF7BEFC064B9B78DB09DBB2B5
:10384C001A464FF400710648FDF7B4FC00BF98BD52
:10385C007001002098010020304D00080008014044
:10386C00000C0140F0B585B004AF124B1B7801334E
:10387C00DAB2104B1A700F4B1B781E460E4B1869A0
:10388C000D4B5C690C4B9B690B4AD2690A49898CBC
:10389C000D460849497803910295019200932346FD
:1038AC0002463146054800F067FA00BF0437BD46B2
:1038BC00F0BD00BF9801002070010020EC4C000806
:1038CC0080B400AF034B00221A6000BFBD4680BC21
:1038DC00704700BF9000002080B400AF044B1B6801
:1038EC000133034A136000BFBD4680BC704700BF64
:1038FC009000002080B584B000AF194B19221A70CB
:10390C00174B00225A70164B00229A70144B00224F
:10391C00DA70134B00221A713B4600221A605A606F
:10392C009A60DA600C233B6000237B600123BB6050
:10393C000223FB603B4619460A48FDF701FA0323B4
:10394C003B6000237B600123BB600223FB603B4692
:10395C0019460548FDF7F4F900BF1037BD4680BD88
:10396C009C01002000080140000C014080B483B091
:10397C0000AF0023FB7164E0FB79364A52F8333018
:10398C009B689AB2FB793349DB000B449B8813404C
:10399C00BB80FB79304A5B001344DA88FB79520018
:1039AC0091B22D4A5B0013440A46DA80BB88002B87
:1039BC000DD0FB79284A5B001344DA88FB7942F07E
:1039CC00010291B2244A5B0013440A46DA80FB7967
:1039DC00214A13445B78002B16D11F4B1B78002B0C
:1039EC0006D01D4B1B78013BDAB21B4B1A7025E03D
:1039FC00BB88002B01D0012100E00221FB79164A83
:103A0C0013440A465A7019E0FB79134A5B001344BD
:103A1C00DB88DBB2802B04D1FB790F4A13440222E2
:103A2C005A70FB790C4A5B001344DB88DBB27F2BAA
:103A3C0004D1FB79084A134401225A70FB790133F3
:103A4C00FB71FB79032B97D900BF0C37BD4680BCAB
:103A5C00704700BF384D00089C01002080B483B033
:103A6C0000AF0346FB71FB79032B04D8FB79054AA5
:103A7C0013445B7800E0002318460C37BD4680BC2D
:103A8C00704700BF9C01002080B400AF0A4B00229D
:103A9C001A600A4B0022DA80084B00221A71074B7D
:103AAC000022DA70054B00229A70044B00221A8017
:103ABC0000BFBD4680BC70479C00002094000020D5
:103ACC0080B400AF244B1B680133234A1360234B93
:103ADC00DB8801339AB2214BDA80204BDB88B3F5BB
:103AEC007A7F35D31D4B0022DA801C4B1B790133B6
:103AFC00DAB21A4B1A71194B1B793B2B28D9174B7D
:103B0C0000221A71154BDB780133DAB2134BDA70E1
:103B1C00124BDB783B2B1BD9104B0022DA700F4B6E
:103B2C009B780133DAB20D4B9A700C4B9B78172BA8
:103B3C000ED90A4B00229A70084B1B884FF6FF7265
:103B4C00934205D0054B1B8801339AB2034B1A8064
:103B5C0000BFBD4680BC70479C0000209400002034
:103B6C0080B584B000AF78607B68DBB2FB7307F183
:103B7C000F01054B01220548FFF73CF97B681846FD
:103B8C001037BD4680BD00BF401901002C0100203C
:103B9C0080B500AFFFF778FFFFF7BCFDFFF7AAFE7B
:103BAC00FFF78EFE00BF80BD80B500AFFFF788FF2A
:103BBC00FFF7BCFD00BF80BD80B400AF00BFBD46A9
:103BCC0080BC704780B500AFFFF7D0FE00BF80BD52
:103BDC0080B400AF00BFBD4680BC704780B400AF5E
:103BEC0000BFBD4680BC704780B400AF00BFBD466F
:103BFC0080BC704780B500AFFFF734FE00BF80BDBE
:103C0C0080B400AF00BFBD4680BC704780B500AF2C
:103C1C00FFF762FE00BF80BD80B500AF064B0022EF
:103C2C001A70054B00225A70034B00229A70FFF752
:103C3C00AFFF00BF80BD00BFA000002080B500AF6B
:103C4C002C4B5A782B4B1B789A42F9D0294B1A786B
:103C5C00284B5A70FFF7A8FF264B9B7803F0010303
:103C6C00002B02D0FFF7A8FF3CE0224B9B7803F01F
:103C7C000203002B02D0FFF7A5FF33E01D4B9B780E
:103C8C0003F00403002B02D0FFF7A2FF2AE0194B2C
:103C9C009B7803F00803002B02D0FFF79FFF21E075
:103CAC00144B9B7803F01003002B02D0FFF79CFF02
:103CBC0018E0104B9B7803F02003002B02D0FFF789
:103CCC0099FF0FE00B4B9B7803F04003002B02D0C5
:103CDC00FFF796FF06E0074B9B785BB2002B01DAEF
:103CEC00FFF794FF034B9B780133DAB2014B9A70C8
:103CFC00A6E700BFA000002080B400AF044B1B78E7
:103D0C000133DAB2024B1A7000BFBD4680BC70475B
:103D1C00A0000020014B1868704700BF0C00002069
:103D2C0070B500250C4E0D4CA41BA410A54209D156
:103D3C0000F010FF00250A4E0A4CA41BA410A5424B
:103D4C0005D170BD56F8253098470135EEE756F889
:103D5C00253098470135F2E7F04D0008F04D00088A
:103D6C00F04D0008F44D000803460244934200D184
:103D7C00704703F8011BF9E70FB40A4B13B51C6825
:103D8C0024B1A36913B9204600F04EF805AB049A90
:103D9C00A1682046019300F053F902B0BDE8104031
:103DAC0004B070470C000020002310B50446C0E995
:103DBC000033836081814366C281C0E9043383612F
:103DCC00194608225C30FFF7CFFF054B2462636273
:103DDC00044BA362044BE362044B236310BD00BF8E
:103DEC00A9450008CB4500080346000827460008F3
:103DFC00014900F085B800BF0149000870B568257D
:103E0C004A1E55430E4605F1740100F097F804461E
:103E1C0040B10021C0E900160C30A06005F1680229
:103E2C00FFF7A2FF204670BD836910B5044633BB73
:103E3C00C0E912330365124B124A1B688262984226
:103E4C0004BF0123836100F01FF86060204600F07E
:103E5C001BF8A060204600F017F80022E060042157
:103E6C006068FFF7A1FF01220921A068FFF79CFF02
:103E7C0002221221E068FFF797FF0123A36110BD16
:103E8C00584D0008FD3D0008F8B51B4B07461E6851
:103E9C00B36913B93046FFF7C7FF4836D6E901348A
:103EAC00013B03D5336833B13668F7E7B4F90C50EE
:103EBC006DB16834F4E704213846FFF79FFF30609A
:103ECC000028F1D10C2304463B602046F8BD0B4B77
:103EDC006566C4E90055A560C4E90335C4E9055518
:103EEC000822294604F15C00FFF73EFFC4E90D559A
:103EFC00C4E91255E9E700BF584D00080100FFFF67
:103F0C002DE9F84380468946002600F1480414B98F
:103F1C003046BDE8F883D4E90175013F01D524682A
:103F2C00F5E7AB89012B07D9B5F90E30013303D076
:103F3C0029464046C84706436835EEE770B5CD1CA8
:103F4C0025F0030508350C2D38BF0C25002D064631
:103F5C0001DBA94203D90C233360002070BD00F0B3
:103F6C0077FD214A1468214691B9204C23681BB96E
:103F7C00304600F003FB20602946304600F0FEFA84
:103F8C00431C24D10C233046336000F062FDE4E77F
:103F9C000B685B1B18D40B2B0FD90B60CC18CD50B6
:103FAC00304600F056FD04F10B00231D20F00700F5
:103FBC00C31AD3D05A42E250D0E74B688C4216BF9A
:103FCC00636013600C46EBE70C464968CCE7C41CF5
:103FDC0024F00304A04205D0211A304600F0CEFA9A
:103FEC000130CFD02560DBE7A4000020A800002022
:103FFC00936810B4013B002B936007DA9469A342D9
:10400C0001DB0A2902D110BC00F00CBB1368581C50
:10401C0010601970084610BC7047F8B506460F467C
:10402C001446D518AC4201D1002007E03A4614F8EA
:10403C00011B3046FFF7DCFF431CF3D1F8BD000039
:10404C002DE9F04F0C469DB017461D46064618B19B
:10405C0083690BB9FFF7E8FE7C4B9C4258D174681E
:10406C00A38918075ED52369002B5BD00023099325
:10407C0020238DF8293030234FF0010B8DF82A3096
:10408C000395B846454615F8013B0BB1252B54D189
:10409C00B8EB070A0BD053463A4621463046FFF799
:1040AC00BCFF013000F0C280099B5344099398F87F
:1040BC000030002B00F0BA8000234FF0FF32CDE926
:1040CC000523049307938DF853301A93A8460522C1
:1040DC0018F8011B5E4800F0ADFC049B78BBD906B8
:1040EC0044BF20228DF853201A0744BF2B228DF891
:1040FC0053202A782A2A2AD0A84600200A25079A73
:10410C00414611F8013B303B092B69D960B324E0DF
:10411C00504B9C4201D1B468A2E74F4B9C4208BF64
:10412C00F4689DE72146304600F0E0FA00289DD067
:10413C004FF0FF301DB0BDE8F08FA846A2E7444A0F
:10414C004546801A0BFA00F018430490BEE7039A18
:10415C00111D12680391002A01DB079204E0524200
:10416C0043F002030792049398F800302E2B0ED1E3
:10417C0098F801302A2B38D1039B08F102081A1D3C
:10418C001B680392002BB8BF4FF0FF330593334DE0
:10419C00032298F80010284600F04CFC40B1402354
:1041AC00401B03FA00F0049B08F10108034304933D
:1041BC0098F8001006222A4808F101078DF82810FB
:1041CC0000F038FC002837D0264B1BBB039B073371
:1041DC0023F0070308330393099B4B44099350E7DF
:1041EC0005FB0232012088468AE700230A2519467E
:1041FC0008F101080593404610F8012B303A092AC2
:10420C0003D9002BC3D00591C1E705FB0121012384
:10421C008046F0E703AB00932246134B04A93046CB
:10422C00AFF30080B0F1FF3F8146D5D1A3895B0687
:10423C003FF57EAF09987DE703AB009322460A4B0E
:10424C0004A9304600F088F8ECE700BF7C4D00086C
:10425C00BC4D00089C4D00085C4D0008C24D000888
:10426C00C64D000800000000274000082DE9F0476B
:10427C0091461F468A680B6906469342B8BF13469F
:10428C00C9F8003091F843200C46DDF8208012B1BB
:10429C000133C9F800302368990642BFD9F80030C1
:1042AC000233C9F80030256815F0060507D104F172
:1042BC00190AE368D9F800209B1AAB4229DC94F860
:1042CC0043302268003318BF012392062ED404F128
:1042DC00430239463046C047013021D02368E56897
:1042EC0003F00603042B18BF0025D9F800204FF06B
:1042FC00000908BFAD1AA368226908BF25EAE57555
:10430C009342C4BF9B1AED181A344D451AD10020A4
:10431C0008E00123524639463046C047013003D1EC
:10432C004FF0FF30BDE8F0870135C2E73020E118CF
:10433C0081F843005A1C94F845102244023382F849
:10434C004310C4E70123224639463046C0470130AA
:10435C00E6D009F10109D8E72DE9F04301F1430C4E
:10436C000C46097E85B06E291746064698460C9A6F
:10437C0000F0B38022D8632936D00AD8002900F087
:10438C00B980582900F0838004F1420584F842106A
:10439C0032E0642901D06929F6D12068136805063A
:1043AC0003F104012AD51B681160002B03DA2D22BE
:1043BC005B4284F843206F480A2239E0732900F0ED
:1043CC009D8008D86F2920D07029DDD1236843F057
:1043DC002003236003E0752917D07829D4D17823E2
:1043EC00654884F8453055E0136804F14205191D01
:1043FC001B68116084F8423001238CE01B6810F0BC
:10440C00400F116018BF1BB2CFE713682568181D49
:10441C001060280601D51B6802E06806FBD51B88D6
:10442C006F2914BF0A2208225248002184F8431035
:10443C006568002DA560C0F29580216821F004010B
:10444C002160002B3DD1002D40F08E806546082A5E
:10445C000BD12368DB0708D5236962689A42DEBF5B
:10446C00302305F8013C05F1FF35ACEB0503236166
:10447C00CDF800803B4603AA21463046FFF7F6FEF6
:10448C0001304DD14FF0FF3005B0BDE8F083394815
:10449C0084F84510136821681D1D1B6815600A06F9
:1044AC000BD5CA0744BF41F0200121601BB922681B
:1044BC0022F0200222601022B7E74D0648BF9BB2C3
:1044CC00EFE76546B3FBF2F102FB1133C35C05F871
:1044DC00013D0B460029F5D1B9E713682568181D75
:1044EC006169106028061B6801D5196002E06A0634
:1044FC00FBD51980002365462361B9E71368191DA4
:10450C0011601D6862680021284600F093FA08B11A
:10451C00401B606063682361002384F84330A7E785
:10452C0023692A4639463046C0470130AAD0236851
:10453C009B0713D4E068039B9842B8BF1846A3E7C7
:10454C0001234A4639463046C04701309AD00135DE
:10455C00E368039A9B1AAB42F2DCEBE7002504F10B
:10456C001909F5E7002BACD1037804F1420584F866
:10457C0042306CE7CD4D0008DE4D000838B5002305
:10458C00054C054608462360FBF774FF431C02D11B
:10459C00236803B12B6038BDAC01002010B50C466C
:1045AC00B1F90E1000F0A2FA0028ABBF636DA3891D
:1045BC001B1823F48053ACBF6365A38110BD2DE998
:1045CC00F0411F468B890546DB050C46164605D582
:1045DC0002230022B1F90E1000F0B6F9A38932467D
:1045EC0023F48053A381B4F90E103B462846BDE852
:1045FC00F04100F069B810B50C46B1F90E1000F09E
:10460C00A3F9431CA38915BF606523F4805343F4BD
:10461C008053A38118BFA38110BDB1F90E1000F017
:10462C00D3B80000F8B50E461446054618B1836998
:10463C000BB9FFF7F9FB214B9C422AD16C68A3699B
:10464C00A360A3891A072ED5236963B32369206855
:10465C00F6B2C01A63693746834204DC2146284609
:10466C0000F048F928BBA3680130013BA360236824
:10467C005A1C22601E706369834204D0A389DB0735
:10468C0019D50A2E17D12146284600F033F990B1DE
:10469C000FE00B4B9C4201D1AC68D0E7094B9C421C
:1046AC0008BFEC68CBE72146284600F01FF800282D
:1046BC00CCD04FF0FF373846F8BD00BF7C4D00081A
:1046CC009C4D00085C4D000838B50546084611465F
:1046DC000022054C22601A46FBF77FFE431C02D1D8
:1046EC00236803B12B6038BDAC010020324B70B590
:1046FC001D6806460C4625B1AB6913B92846FFF771
:10470C0093FB2E4B9C420FD16C68B4F90C309AB2CF
:10471C0015072CD4D00611D40922326043F0400383
:10472C00A3814FF0FF303EE0254B9C4201D1AC6899
:10473C00EBE7244B9C4208BFEC68E6E7510712D527
:10474C00616B41B104F14403994202D0304600F050
:10475C0081F900236363A38923F02403A38100233D
:10476C00636023692360A38943F00803A381236951
:10477C004BB9A38903F42073B3F5007F03D0214612
:10478C00304600F017F9A28912F001030CD0002377
:10479C00A36063695B42A361236953B9B4F90C301C
:1047AC0013F08000BAD170BD920758BF6369A36043
:1047BC00F2E70020F7E700BF0C0000207C4D00085A
:1047CC009C4D00085C4D000838B50023054C05468F
:1047DC0008462360FBF71DFE431C02D1236803B17E
:1047EC002B6038BDAC0100208A892DE9F0410546CB
:1047FC0010070C4658D44B68002B05DC0B6C002BB7
:10480C0002DC0020BDE8F081E66A002EF9D000231E
:10481C0012F480522F68216A2B6032D0606DA3890C
:10482C005A0705D56368C01A636B0BB1236CC01AA9
:10483C0000230246E66A216A2846B047431CA38936
:10484C0006D129681D2948D8294ACA40D60744D51B
:10485C00002262602269D904226004D5421C01D175
:10486C002B6803B96065616B2F600029C9D004F116
:10487C004403994202D0284600F0ECF80020606313
:10488C00C0E701232846B047411CC8D12B68002B38
:10489C00C5D01D2B01D0162B01D12F60B1E7A389F8
:1048AC0043F04003A381ADE70F69002FA9D0930714
:1048BC0018BF00230E6808BF4B69A6EB07080F60F2
:1048CC008B60B8F1000F9CDD43463A46216A2846BE
:1048DC00A66AB047002806DCA38943F04003A381F5
:1048EC004FF0FF308EE70744A8EB0008E9E700BF64
:1048FC000100402038B50B6905460C46DBB118B1F8
:10490C0083690BB9FFF790FA0C4B9C4209D16C6888
:10491C00B4F90C307BB121462846BDE83840FFF78E
:10492C0063BF074B9C4201D1AC68F1E7054B9C423D
:10493C0008BFEC68ECE7002038BD00BF7C4D0008D8
:10494C009C4D00085C4D000838B5054608461146DC
:10495C000022054C22601A46FBF77FFD431C02D156
:10496C00236803B12B6038BDAC01002070B50E4636
:10497C00B1F90E1096B0002914461D4607DA002333
:10498C002B60B3891A0610D44FF480630EE06A468C
:10499C0000F0BEF80028F2DB019A02F47042A2F596
:1049AC0000535A425A412A60EEE74023002023600C
:1049BC0016B070BD8B8973B59D0706460C4607D59E
:1049CC0004F14703236023610123636102B070BDCE
:1049DC0001AB6A46FFF7CAFF009905463046FFF760
:1049EC00ADFA48B9B4F90C309A05EFD423F00303AF
:1049FC0043F00203A381E3E70D4BB362A38920606C
:104A0C0043F08003A381009B20616361019B5BB138
:104A1C00B4F90E10304600F08DF828B1A38923F0BC
:104A2C00030343F00103A381A3891D43A581CDE7B3
:104A3C00FD3D000810B5C9B202449042034601D1B5
:104A4C00002303E01C7801308C42F6D1184610BDCF
:104A5C007047704738B50546002943D051F8043CDF
:104A6C000C1F002BB8BFE418FFF7F2FF1E4A1368A7
:104A7C00104633B9636014602846BDE83840FFF730
:104A8C00E8BFA3420BD921686218934201BF1A6890
:104A9C005B685218226063600460EDE713465A6845
:104AAC000AB1A242FAD919685818A0420BD1206851
:104ABC000144581882421960DED1106852680144D2
:104ACC0019605A60D8E702D90C232B60D4E7206810
:104ADC0021188A4201BF116852680918216062606E
:104AEC005C60C9E738BD00BFA400002038B505469E
:104AFC00084611460022054C22601A46FBF750FC72
:104B0C00431C02D1236803B12B6038BDAC010020DB
:104B1C0038B50023064C0546084611462360FBF7C2
:104B2C0083FC431C02D1236803B12B6038BD00BF4A
:104B3C00AC01002038B50023054C0546084623601F
:104B4C00FBF781FC431C02D1236803B12B6038BDF9
:104B5C00AC010020F8B500BFF8BC08BC9E467047FD
:0C4B6C00F8B500BFF8BC08BC9E467047BE
:104B78002E2E2F447269766572732F53544D33323B
:104B8800463178785F48414C5F4472697665722F88
:104B98005372632F73746D3332663178785F68614E
:104BA8006C5F636F727465782E6300002E2E2F443D
:104BB8007269766572732F53544D33324631787863
:104BC8005F48414C5F4472697665722F5372632F58
:104BD80073746D3332663178785F68616C5F6770C3
:104BE800696F2E63000000002E2E2F4472697665CF
:104BF80072732F53544D3332463178785F48414CA5
:104C08005F4472697665722F5372632F73746D33C4
:104C180032663178785F68616C5F7263632E630017
:104C280002030405060708090A0B0C0D0E0F1010E5
:104C3800010200002E2E2F447269766572732F537D
:104C4800544D3332463178785F48414C5F4472693D
:104C58007665722F5372632F73746D3332663178B1
:104C6800785F68616C5F74696D2E63002E2E2F4427
:104C78007269766572732F53544D333246317878A2
:104C88005F48414C5F4472697665722F5372632F97
:104C980073746D3332663178785F68616C5F7469FC
:104CA8006D5F65782E6300002E2E2F44726976653D
:104CB80072732F53544D3332463178785F48414CE4
:104CC8005F4472697665722F5372632F73746D3304
:104CD80032663178785F68616C5F756172742E63D3
:104CE8000000000025643A2028256C64292D282519
:104CF8006C64293D28256C6429202D3E20256C6490
:104D0800202D3E2025642C2025640D0A000000007B
:104D18000000000000000000010203040607080963
:104D28000000000001020304010204081020408072
:104D380000080140040000000008014008000000CD
:104D4800000C014001000000000C014002000000BE
:104D5800100000200000000000000000000000001B
:104D6800000000000000000000000000000000003B
:104D7800000000000000000000000000000000002B
:104D8800000000000000000000000000000000001B
:104D9800000000000000000000000000000000000B
:104DA80000000000000000000000000000000000FB
:104DB80000000000232D302B2000686C4C00656635
:104DC8006745464700303132333435363738394154
:104DD800424344454600303132333435363738396A
:084DE80061626364656600006E
:044DF0003101000885
:044DF4000D010008A5
:104DF8000024F40010000000010000001000002052
:104E0800000000007C4D00089C4D00085C4D000827
:104E1800000000000000000000000000000000008A
:104E2800000000000000000000000000000000007A
:104E3800000000000000000000000000000000006A
:104E4800000000000000000000000000000000005A
:104E5800000000000000000000000000000000004A
:04000005080008FDEA
:00000001FF
